{
  "address": "0x478613459b02CFBAD77b35580824E7861f763CaD",
  "abi": [
    {
      "inputs": [
        {
          "internalType": "address",
          "name": "priceFeed",
          "type": "address"
        },
        {
          "internalType": "string",
          "name": "lowSVG",
          "type": "string"
        },
        {
          "internalType": "string",
          "name": "highSVG",
          "type": "string"
        }
      ],
      "stateMutability": "nonpayable",
      "type": "constructor"
    },
    {
      "anonymous": false,
      "inputs": [
        {
          "indexed": true,
          "internalType": "address",
          "name": "owner",
          "type": "address"
        },
        {
          "indexed": true,
          "internalType": "address",
          "name": "approved",
          "type": "address"
        },
        {
          "indexed": true,
          "internalType": "uint256",
          "name": "tokenId",
          "type": "uint256"
        }
      ],
      "name": "Approval",
      "type": "event"
    },
    {
      "anonymous": false,
      "inputs": [
        {
          "indexed": true,
          "internalType": "address",
          "name": "owner",
          "type": "address"
        },
        {
          "indexed": true,
          "internalType": "address",
          "name": "operator",
          "type": "address"
        },
        {
          "indexed": false,
          "internalType": "bool",
          "name": "approved",
          "type": "bool"
        }
      ],
      "name": "ApprovalForAll",
      "type": "event"
    },
    {
      "anonymous": false,
      "inputs": [
        {
          "indexed": true,
          "internalType": "uint256",
          "name": "tokenId",
          "type": "uint256"
        },
        {
          "indexed": true,
          "internalType": "int256",
          "name": "HighValue",
          "type": "int256"
        }
      ],
      "name": "CreatedNft",
      "type": "event"
    },
    {
      "anonymous": false,
      "inputs": [
        {
          "indexed": true,
          "internalType": "address",
          "name": "from",
          "type": "address"
        },
        {
          "indexed": true,
          "internalType": "address",
          "name": "to",
          "type": "address"
        },
        {
          "indexed": true,
          "internalType": "uint256",
          "name": "tokenId",
          "type": "uint256"
        }
      ],
      "name": "Transfer",
      "type": "event"
    },
    {
      "inputs": [
        {
          "internalType": "string",
          "name": "svg",
          "type": "string"
        }
      ],
      "name": "SVGtoImageURI",
      "outputs": [
        {
          "internalType": "string",
          "name": "",
          "type": "string"
        }
      ],
      "stateMutability": "pure",
      "type": "function"
    },
    {
      "inputs": [
        {
          "internalType": "address",
          "name": "to",
          "type": "address"
        },
        {
          "internalType": "uint256",
          "name": "tokenId",
          "type": "uint256"
        }
      ],
      "name": "approve",
      "outputs": [],
      "stateMutability": "nonpayable",
      "type": "function"
    },
    {
      "inputs": [
        {
          "internalType": "address",
          "name": "owner",
          "type": "address"
        }
      ],
      "name": "balanceOf",
      "outputs": [
        {
          "internalType": "uint256",
          "name": "",
          "type": "uint256"
        }
      ],
      "stateMutability": "view",
      "type": "function"
    },
    {
      "inputs": [
        {
          "internalType": "uint256",
          "name": "tokenId",
          "type": "uint256"
        }
      ],
      "name": "getApproved",
      "outputs": [
        {
          "internalType": "address",
          "name": "",
          "type": "address"
        }
      ],
      "stateMutability": "view",
      "type": "function"
    },
    {
      "inputs": [
        {
          "internalType": "address",
          "name": "owner",
          "type": "address"
        },
        {
          "internalType": "address",
          "name": "operator",
          "type": "address"
        }
      ],
      "name": "isApprovedForAll",
      "outputs": [
        {
          "internalType": "bool",
          "name": "",
          "type": "bool"
        }
      ],
      "stateMutability": "view",
      "type": "function"
    },
    {
      "inputs": [
        {
          "internalType": "int256",
          "name": "highValue",
          "type": "int256"
        }
      ],
      "name": "mintNft",
      "outputs": [],
      "stateMutability": "nonpayable",
      "type": "function"
    },
    {
      "inputs": [],
      "name": "name",
      "outputs": [
        {
          "internalType": "string",
          "name": "",
          "type": "string"
        }
      ],
      "stateMutability": "view",
      "type": "function"
    },
    {
      "inputs": [
        {
          "internalType": "uint256",
          "name": "tokenId",
          "type": "uint256"
        }
      ],
      "name": "ownerOf",
      "outputs": [
        {
          "internalType": "address",
          "name": "",
          "type": "address"
        }
      ],
      "stateMutability": "view",
      "type": "function"
    },
    {
      "inputs": [
        {
          "internalType": "uint256",
          "name": "",
          "type": "uint256"
        }
      ],
      "name": "s_tokenIdtoHighValue",
      "outputs": [
        {
          "internalType": "int256",
          "name": "",
          "type": "int256"
        }
      ],
      "stateMutability": "view",
      "type": "function"
    },
    {
      "inputs": [
        {
          "internalType": "address",
          "name": "from",
          "type": "address"
        },
        {
          "internalType": "address",
          "name": "to",
          "type": "address"
        },
        {
          "internalType": "uint256",
          "name": "tokenId",
          "type": "uint256"
        }
      ],
      "name": "safeTransferFrom",
      "outputs": [],
      "stateMutability": "nonpayable",
      "type": "function"
    },
    {
      "inputs": [
        {
          "internalType": "address",
          "name": "from",
          "type": "address"
        },
        {
          "internalType": "address",
          "name": "to",
          "type": "address"
        },
        {
          "internalType": "uint256",
          "name": "tokenId",
          "type": "uint256"
        },
        {
          "internalType": "bytes",
          "name": "data",
          "type": "bytes"
        }
      ],
      "name": "safeTransferFrom",
      "outputs": [],
      "stateMutability": "nonpayable",
      "type": "function"
    },
    {
      "inputs": [
        {
          "internalType": "address",
          "name": "operator",
          "type": "address"
        },
        {
          "internalType": "bool",
          "name": "approved",
          "type": "bool"
        }
      ],
      "name": "setApprovalForAll",
      "outputs": [],
      "stateMutability": "nonpayable",
      "type": "function"
    },
    {
      "inputs": [
        {
          "internalType": "bytes4",
          "name": "interfaceId",
          "type": "bytes4"
        }
      ],
      "name": "supportsInterface",
      "outputs": [
        {
          "internalType": "bool",
          "name": "",
          "type": "bool"
        }
      ],
      "stateMutability": "view",
      "type": "function"
    },
    {
      "inputs": [],
      "name": "symbol",
      "outputs": [
        {
          "internalType": "string",
          "name": "",
          "type": "string"
        }
      ],
      "stateMutability": "view",
      "type": "function"
    },
    {
      "inputs": [
        {
          "internalType": "uint256",
          "name": "tokenId",
          "type": "uint256"
        }
      ],
      "name": "tokenURI",
      "outputs": [
        {
          "internalType": "string",
          "name": "",
          "type": "string"
        }
      ],
      "stateMutability": "view",
      "type": "function"
    },
    {
      "inputs": [
        {
          "internalType": "address",
          "name": "from",
          "type": "address"
        },
        {
          "internalType": "address",
          "name": "to",
          "type": "address"
        },
        {
          "internalType": "uint256",
          "name": "tokenId",
          "type": "uint256"
        }
      ],
      "name": "transferFrom",
      "outputs": [],
      "stateMutability": "nonpayable",
      "type": "function"
    }
  ],
  "transactionHash": "0x65158189bbaad1fb178e88baa73fe673f546a6d28606610adc2176ec9106a529",
  "args": [
    "0x694AA1769357215DE4FAC081bf1f309aDC325306",
    "<?xml version=\"1.0\" standalone=\"no\"?>\n<svg width=\"1024px\" height=\"1024px\" viewBox=\"0 0 1024 1024\" xmlns=\"http://www.w3.org/2000/svg\">\n  <path fill=\"#333\" d=\"M512 64C264.6 64 64 264.6 64 512s200.6 448 448 448 448-200.6 448-448S759.4 64 512 64zm0 820c-205.4 0-372-166.6-372-372s166.6-372 372-372 372 166.6 372 372-166.6 372-372 372z\"/>\n  <path fill=\"#E6E6E6\" d=\"M512 140c-205.4 0-372 166.6-372 372s166.6 372 372 372 372-166.6 372-372-166.6-372-372-372zM288 421a48.01 48.01 0 0 1 96 0 48.01 48.01 0 0 1-96 0zm376 272h-48.1c-4.2 0-7.8-3.2-8.1-7.4C604 636.1 562.5 597 512 597s-92.1 39.1-95.8 88.6c-.3 4.2-3.9 7.4-8.1 7.4H360a8 8 0 0 1-8-8.4c4.4-84.3 74.5-151.6 160-151.6s155.6 67.3 160 151.6a8 8 0 0 1-8 8.4zm24-224a48.01 48.01 0 0 1 0-96 48.01 48.01 0 0 1 0 96z\"/>\n  <path fill=\"#333\" d=\"M288 421a48 48 0 1 0 96 0 48 48 0 1 0-96 0zm224 112c-85.5 0-155.6 67.3-160 151.6a8 8 0 0 0 8 8.4h48.1c4.2 0 7.8-3.2 8.1-7.4 3.7-49.5 45.3-88.6 95.8-88.6s92 39.1 95.8 88.6c.3 4.2 3.9 7.4 8.1 7.4H664a8 8 0 0 0 8-8.4C667.6 600.3 597.5 533 512 533zm128-112a48 48 0 1 0 96 0 48 48 0 1 0-96 0z\"/>\n</svg>",
    "<svg viewBox=\"0 0 200 200\" width=\"400\"  height=\"400\" xmlns=\"http://www.w3.org/2000/svg\">\n  <circle cx=\"100\" cy=\"100\" fill=\"yellow\" r=\"78\" stroke=\"black\" stroke-width=\"3\"/>\n  <g class=\"eyes\">\n    <circle cx=\"61\" cy=\"82\" r=\"12\"/>\n    <circle cx=\"127\" cy=\"82\" r=\"12\"/>\n  </g>\n  <path d=\"m136.81 116.53c.69 26.17-64.11 42-81.52-.73\" style=\"fill:none; stroke: black; stroke-width: 3;\"/>\n</svg>"
  ],
  "numDeployments": 1,
  "solcInputHash": "c9c939c99a7467a3faf1bfd214ade34a",
  "bytecode": "0x60a06040523480156200001157600080fd5b50604051620037e6380380620037e68339818101604052810190620000379190620004e2565b6040518060400160405280600f81526020017f44796e616d696320535647204e667400000000000000000000000000000000008152506040518060400160405280600381526020017f44534e00000000000000000000000000000000000000000000000000000000008152508160009080519060200190620000bb9291906200039d565b508060019080519060200190620000d49291906200039d565b5050508273ffffffffffffffffffffffffffffffffffffffff1660808173ffffffffffffffffffffffffffffffffffffffff1660601b815250506200011f826200017160201b60201c565b60079080519060200190620001369291906200039d565b5062000148816200017160201b60201c565b600890805190602001906200015f9291906200039d565b5060006006819055505050506200093a565b60606000620001ac836040516020016200018c9190620005b3565b6040516020818303038152906040526200020f60201b62000d2b1760201c565b90506040518060400160405280601a81526020017f646174613a696d6167652f7376672b786d6c3b6261736536342c00000000000081525081604051602001620001f8929190620005cc565b604051602081830303815290604052915050919050565b6060600082511415620002345760405180602001604052806000815250905062000398565b6000604051806060016040528060408152602001620037a6604091399050600060036002855162000266919062000669565b620002729190620006c6565b6004620002809190620006fe565b9050600060208262000293919062000669565b67ffffffffffffffff811115620002af57620002ae620008cc565b5b6040519080825280601f01601f191660200182016040528015620002e25781602001600182028036833780820191505090505b509050818152600183018586518101602084015b8183101562000353576003830192508251603f8160121c168501518253600182019150603f81600c1c168501518253600182019150603f8160061c168501518253600182019150603f8116850151825360018201915050620002f6565b60038951066001811462000370576002811462000381576200038c565b613d3d60f01b60028303526200038c565b603d60f81b60018303525b50505050508093505050505b919050565b828054620003ab90620007d3565b90600052602060002090601f016020900481019282620003cf57600085556200041b565b82601f10620003ea57805160ff19168380011785556200041b565b828001600101855582156200041b579182015b828111156200041a578251825591602001919060010190620003fd565b5b5090506200042a91906200042e565b5090565b5b80821115620004495760008160009055506001016200042f565b5090565b6000620004646200045e846200061d565b620005f4565b90508281526020810184848401111562000483576200048262000900565b5b620004908482856200079d565b509392505050565b600081519050620004a98162000920565b92915050565b600082601f830112620004c757620004c6620008fb565b5b8151620004d98482602086016200044d565b91505092915050565b600080600060608486031215620004fe57620004fd6200090a565b5b60006200050e8682870162000498565b935050602084015167ffffffffffffffff81111562000532576200053162000905565b5b6200054086828701620004af565b925050604084015167ffffffffffffffff81111562000564576200056362000905565b5b6200057286828701620004af565b9150509250925092565b6000620005898262000653565b6200059581856200065e565b9350620005a78185602086016200079d565b80840191505092915050565b6000620005c182846200057c565b915081905092915050565b6000620005da82856200057c565b9150620005e882846200057c565b91508190509392505050565b60006200060062000613565b90506200060e828262000809565b919050565b6000604051905090565b600067ffffffffffffffff8211156200063b576200063a620008cc565b5b62000646826200090f565b9050602081019050919050565b600081519050919050565b600081905092915050565b6000620006768262000793565b9150620006838362000793565b9250827fffffffffffffffffffffffffffffffffffffffffffffffffffffffffffffffff03821115620006bb57620006ba6200083f565b5b828201905092915050565b6000620006d38262000793565b9150620006e08362000793565b925082620006f357620006f26200086e565b5b828204905092915050565b60006200070b8262000793565b9150620007188362000793565b9250817fffffffffffffffffffffffffffffffffffffffffffffffffffffffffffffffff04831182151516156200075457620007536200083f565b5b828202905092915050565b60006200076c8262000773565b9050919050565b600073ffffffffffffffffffffffffffffffffffffffff82169050919050565b6000819050919050565b60005b83811015620007bd578082015181840152602081019050620007a0565b83811115620007cd576000848401525b50505050565b60006002820490506001821680620007ec57607f821691505b602082108114156200080357620008026200089d565b5b50919050565b62000814826200090f565b810181811067ffffffffffffffff82111715620008365762000835620008cc565b5b80604052505050565b7f4e487b7100000000000000000000000000000000000000000000000000000000600052601160045260246000fd5b7f4e487b7100000000000000000000000000000000000000000000000000000000600052601260045260246000fd5b7f4e487b7100000000000000000000000000000000000000000000000000000000600052602260045260246000fd5b7f4e487b7100000000000000000000000000000000000000000000000000000000600052604160045260246000fd5b600080fd5b600080fd5b600080fd5b600080fd5b6000601f19601f8301169050919050565b6200092b816200075f565b81146200093757600080fd5b50565b60805160601c612e4d620009596000396000610a5c0152612e4d6000f3fe608060405234801561001057600080fd5b50600436106101005760003560e01c8063639f60ce11610097578063a22cb46511610066578063a22cb465146102d1578063b88d4fde146102ed578063c87b56dd14610309578063e985e9c51461033957610100565b8063639f60ce1461022357806370a082311461025357806395d89b4114610283578063a1a6a19e146102a157610100565b80631e930812116100d35780631e9308121461019f57806323b872dd146101bb57806342842e0e146101d75780636352211e146101f357610100565b806301ffc9a71461010557806306fdde0314610135578063081812fc14610153578063095ea7b314610183575b600080fd5b61011f600480360381019061011a9190611dea565b610369565b60405161012c9190612363565b60405180910390f35b61013d61044b565b60405161014a9190612399565b60405180910390f35b61016d60048036038101906101689190611eba565b6104dd565b60405161017a91906122fc565b60405180910390f35b61019d60048036038101906101989190611daa565b610523565b005b6101b960048036038101906101b49190611e44565b61063b565b005b6101d560048036038101906101d09190611c94565b6106a0565b005b6101f160048036038101906101ec9190611c94565b610700565b005b61020d60048036038101906102089190611eba565b610720565b60405161021a91906122fc565b60405180910390f35b61023d60048036038101906102389190611eba565b6107a7565b60405161024a919061237e565b60405180910390f35b61026d60048036038101906102689190611c27565b6107bf565b60405161027a919061253b565b60405180910390f35b61028b610877565b6040516102989190612399565b60405180910390f35b6102bb60048036038101906102b69190611e71565b610909565b6040516102c89190612399565b60405180910390f35b6102eb60048036038101906102e69190611d6a565b610996565b005b61030760048036038101906103029190611ce7565b6109ac565b005b610323600480360381019061031e9190611eba565b610a0e565b6040516103309190612399565b60405180910390f35b610353600480360381019061034e9190611c54565b610c97565b6040516103609190612363565b60405180910390f35b60007f80ac58cd000000000000000000000000000000000000000000000000000000007bffffffffffffffffffffffffffffffffffffffffffffffffffffffff1916827bffffffffffffffffffffffffffffffffffffffffffffffffffffffff1916148061043457507f5b5e139f000000000000000000000000000000000000000000000000000000007bffffffffffffffffffffffffffffffffffffffffffffffffffffffff1916827bffffffffffffffffffffffffffffffffffffffffffffffffffffffff1916145b80610444575061044382610ea4565b5b9050919050565b60606000805461045a906127d7565b80601f0160208091040260200160405190810160405280929190818152602001828054610486906127d7565b80156104d35780601f106104a8576101008083540402835291602001916104d3565b820191906000526020600020905b8154815290600101906020018083116104b657829003601f168201915b5050505050905090565b60006104e882610f0e565b6004600083815260200190815260200160002060009054906101000a900473ffffffffffffffffffffffffffffffffffffffff169050919050565b600061052e82610720565b90508073ffffffffffffffffffffffffffffffffffffffff168373ffffffffffffffffffffffffffffffffffffffff16141561059f576040517f08c379a0000000000000000000000000000000000000000000000000000000008152600401610596906124fb565b60405180910390fd5b8073ffffffffffffffffffffffffffffffffffffffff166105be610f59565b73ffffffffffffffffffffffffffffffffffffffff1614806105ed57506105ec816105e7610f59565b610c97565b5b61062c576040517f08c379a00000000000000000000000000000000000000000000000000000000081526004016106239061251b565b60405180910390fd5b6106368383610f61565b505050565b80600960006006548152602001908152602001600020819055506106613360065461101a565b600160065401600681905550806006547f51e67edca96a8e375a3b7ab6640aee9013f7fb40776849f5cc0b0fd62125156360405160405180910390a350565b6106b16106ab610f59565b82611038565b6106f0576040517f08c379a00000000000000000000000000000000000000000000000000000000081526004016106e7906123bb565b60405180910390fd5b6106fb8383836110cd565b505050565b61071b838383604051806020016040528060008152506109ac565b505050565b60008061072c836113c7565b9050600073ffffffffffffffffffffffffffffffffffffffff168173ffffffffffffffffffffffffffffffffffffffff16141561079e576040517f08c379a0000000000000000000000000000000000000000000000000000000008152600401610795906124db565b60405180910390fd5b80915050919050565b60096020528060005260406000206000915090505481565b60008073ffffffffffffffffffffffffffffffffffffffff168273ffffffffffffffffffffffffffffffffffffffff161415610830576040517f08c379a00000000000000000000000000000000000000000000000000000000081526004016108279061249b565b60405180910390fd5b600360008373ffffffffffffffffffffffffffffffffffffffff1673ffffffffffffffffffffffffffffffffffffffff168152602001908152602001600020549050919050565b606060018054610886906127d7565b80601f01602080910402602001604051908101604052809291908181526020018280546108b2906127d7565b80156108ff5780601f106108d4576101008083540402835291602001916108ff565b820191906000526020600020905b8154815290600101906020018083116108e257829003601f168201915b5050505050905090565b60606000610935836040516020016109219190612271565b604051602081830303815290604052610d2b565b90506040518060400160405280601a81526020017f646174613a696d6167652f7376672b786d6c3b6261736536342c0000000000008152508160405160200161097f929190612288565b604051602081830303815290604052915050919050565b6109a86109a1610f59565b8383611404565b5050565b6109bd6109b7610f59565b83611038565b6109fc576040517f08c379a00000000000000000000000000000000000000000000000000000000081526004016109f3906123bb565b60405180910390fd5b610a0884848484611571565b50505050565b6060610a19826115cd565b610a58576040517f08c379a0000000000000000000000000000000000000000000000000000000008152600401610a4f906123fb565b60405180910390fd5b60007f000000000000000000000000000000000000000000000000000000000000000073ffffffffffffffffffffffffffffffffffffffff1663feaf968c6040518163ffffffff1660e01b815260040160a06040518083038186803b158015610ac057600080fd5b505afa158015610ad4573d6000803e3d6000fd5b505050506040513d601f19601f82011682018060405250810190610af89190611ee7565b505050915050600060078054610b0d906127d7565b80601f0160208091040260200160405190810160405280929190818152602001828054610b39906127d7565b8015610b865780601f10610b5b57610100808354040283529160200191610b86565b820191906000526020600020905b815481529060010190602001808311610b6957829003601f168201915b5050505050905060096000858152602001908152602001600020548212610c355760088054610bb4906127d7565b80601f0160208091040260200160405190810160405280929190818152602001828054610be0906127d7565b8015610c2d5780601f10610c0257610100808354040283529160200191610c2d565b820191906000526020600020905b815481529060010190602001808311610c1057829003601f168201915b505050505090505b610c3d61160e565b610c6e610c4861044b565b83604051602001610c5a9291906122ac565b604051602081830303815290604052610d2b565b604051602001610c7f929190612288565b60405160208183030381529060405292505050919050565b6000600560008473ffffffffffffffffffffffffffffffffffffffff1673ffffffffffffffffffffffffffffffffffffffff16815260200190815260200160002060008373ffffffffffffffffffffffffffffffffffffffff1673ffffffffffffffffffffffffffffffffffffffff16815260200190815260200160002060009054906101000a900460ff16905092915050565b6060600082511415610d4e57604051806020016040528060008152509050610e9f565b6000604051806060016040528060408152602001612dd86040913990506000600360028551610d7d9190612620565b610d879190612676565b6004610d9391906126a7565b90506000602082610da49190612620565b67ffffffffffffffff811115610dbd57610dbc6128c7565b5b6040519080825280601f01601f191660200182016040528015610def5781602001600182028036833780820191505090505b509050818152600183018586518101602084015b81831015610e5e576003830192508251603f8160121c168501518253600182019150603f81600c1c168501518253600182019150603f8160061c168501518253600182019150603f8116850151825360018201915050610e03565b600389510660018114610e785760028114610e8857610e93565b613d3d60f01b6002830352610e93565b603d60f81b60018303525b50505050508093505050505b919050565b60007f01ffc9a7000000000000000000000000000000000000000000000000000000007bffffffffffffffffffffffffffffffffffffffffffffffffffffffff1916827bffffffffffffffffffffffffffffffffffffffffffffffffffffffff1916149050919050565b610f17816115cd565b610f56576040517f08c379a0000000000000000000000000000000000000000000000000000000008152600401610f4d906124db565b60405180910390fd5b50565b600033905090565b816004600083815260200190815260200160002060006101000a81548173ffffffffffffffffffffffffffffffffffffffff021916908373ffffffffffffffffffffffffffffffffffffffff160217905550808273ffffffffffffffffffffffffffffffffffffffff16610fd483610720565b73ffffffffffffffffffffffffffffffffffffffff167f8c5be1e5ebec7d5bd14f71427d1e84f3dd0314c0f7b2291e5b200ac8c7c3b92560405160405180910390a45050565b61103482826040518060200160405280600081525061164b565b5050565b60008061104483610720565b90508073ffffffffffffffffffffffffffffffffffffffff168473ffffffffffffffffffffffffffffffffffffffff16148061108657506110858185610c97565b5b806110c457508373ffffffffffffffffffffffffffffffffffffffff166110ac846104dd565b73ffffffffffffffffffffffffffffffffffffffff16145b91505092915050565b8273ffffffffffffffffffffffffffffffffffffffff166110ed82610720565b73ffffffffffffffffffffffffffffffffffffffff1614611143576040517f08c379a000000000000000000000000000000000000000000000000000000000815260040161113a9061241b565b60405180910390fd5b600073ffffffffffffffffffffffffffffffffffffffff168273ffffffffffffffffffffffffffffffffffffffff1614156111b3576040517f08c379a00000000000000000000000000000000000000000000000000000000081526004016111aa9061245b565b60405180910390fd5b6111c083838360016116a6565b8273ffffffffffffffffffffffffffffffffffffffff166111e082610720565b73ffffffffffffffffffffffffffffffffffffffff1614611236576040517f08c379a000000000000000000000000000000000000000000000000000000000815260040161122d9061241b565b60405180910390fd5b6004600082815260200190815260200160002060006101000a81549073ffffffffffffffffffffffffffffffffffffffff02191690556001600360008573ffffffffffffffffffffffffffffffffffffffff1673ffffffffffffffffffffffffffffffffffffffff168152602001908152602001600020600082825403925050819055506001600360008473ffffffffffffffffffffffffffffffffffffffff1673ffffffffffffffffffffffffffffffffffffffff16815260200190815260200160002060008282540192505081905550816002600083815260200190815260200160002060006101000a81548173ffffffffffffffffffffffffffffffffffffffff021916908373ffffffffffffffffffffffffffffffffffffffff160217905550808273ffffffffffffffffffffffffffffffffffffffff168473ffffffffffffffffffffffffffffffffffffffff167fddf252ad1be2c89b69c2b068fc378daa952ba7f163c4a11628f55a4df523b3ef60405160405180910390a46113c283838360016116ac565b505050565b60006002600083815260200190815260200160002060009054906101000a900473ffffffffffffffffffffffffffffffffffffffff169050919050565b8173ffffffffffffffffffffffffffffffffffffffff168373ffffffffffffffffffffffffffffffffffffffff161415611473576040517f08c379a000000000000000000000000000000000000000000000000000000000815260040161146a9061247b565b60405180910390fd5b80600560008573ffffffffffffffffffffffffffffffffffffffff1673ffffffffffffffffffffffffffffffffffffffff16815260200190815260200160002060008473ffffffffffffffffffffffffffffffffffffffff1673ffffffffffffffffffffffffffffffffffffffff16815260200190815260200160002060006101000a81548160ff0219169083151502179055508173ffffffffffffffffffffffffffffffffffffffff168373ffffffffffffffffffffffffffffffffffffffff167f17307eab39ab6107e8899845ad3d59bd9653f200f220920489ca2b5937696c31836040516115649190612363565b60405180910390a3505050565b61157c8484846110cd565b611588848484846116b2565b6115c7576040517f08c379a00000000000000000000000000000000000000000000000000000000081526004016115be906123db565b60405180910390fd5b50505050565b60008073ffffffffffffffffffffffffffffffffffffffff166115ef836113c7565b73ffffffffffffffffffffffffffffffffffffffff1614159050919050565b60606040518060400160405280601d81526020017f646174613a6170706c69636174696f6e2f6a736f6e3b6261736536342c000000815250905090565b6116558383611849565b61166260008484846116b2565b6116a1576040517f08c379a0000000000000000000000000000000000000000000000000000000008152600401611698906123db565b60405180910390fd5b505050565b50505050565b50505050565b60006116d38473ffffffffffffffffffffffffffffffffffffffff16611a67565b1561183c578373ffffffffffffffffffffffffffffffffffffffff1663150b7a026116fc610f59565b8786866040518563ffffffff1660e01b815260040161171e9493929190612317565b602060405180830381600087803b15801561173857600080fd5b505af192505050801561176957506040513d601f19601f820116820180604052508101906117669190611e17565b60015b6117ec573d8060008114611799576040519150601f19603f3d011682016040523d82523d6000602084013e61179e565b606091505b506000815114156117e4576040517f08c379a00000000000000000000000000000000000000000000000000000000081526004016117db906123db565b60405180910390fd5b805181602001fd5b63150b7a0260e01b7bffffffffffffffffffffffffffffffffffffffffffffffffffffffff1916817bffffffffffffffffffffffffffffffffffffffffffffffffffffffff191614915050611841565b600190505b949350505050565b600073ffffffffffffffffffffffffffffffffffffffff168273ffffffffffffffffffffffffffffffffffffffff1614156118b9576040517f08c379a00000000000000000000000000000000000000000000000000000000081526004016118b0906124bb565b60405180910390fd5b6118c2816115cd565b15611902576040517f08c379a00000000000000000000000000000000000000000000000000000000081526004016118f99061243b565b60405180910390fd5b6119106000838360016116a6565b611919816115cd565b15611959576040517f08c379a00000000000000000000000000000000000000000000000000000000081526004016119509061243b565b60405180910390fd5b6001600360008473ffffffffffffffffffffffffffffffffffffffff1673ffffffffffffffffffffffffffffffffffffffff16815260200190815260200160002060008282540192505081905550816002600083815260200190815260200160002060006101000a81548173ffffffffffffffffffffffffffffffffffffffff021916908373ffffffffffffffffffffffffffffffffffffffff160217905550808273ffffffffffffffffffffffffffffffffffffffff16600073ffffffffffffffffffffffffffffffffffffffff167fddf252ad1be2c89b69c2b068fc378daa952ba7f163c4a11628f55a4df523b3ef60405160405180910390a4611a636000838360016116ac565b5050565b6000808273ffffffffffffffffffffffffffffffffffffffff163b119050919050565b6000611a9d611a988461257b565b612556565b905082815260208101848484011115611ab957611ab86128fb565b5b611ac4848285612795565b509392505050565b6000611adf611ada846125ac565b612556565b905082815260208101848484011115611afb57611afa6128fb565b5b611b06848285612795565b509392505050565b600081359050611b1d81612d4d565b92915050565b600081359050611b3281612d64565b92915050565b600081359050611b4781612d7b565b92915050565b600081519050611b5c81612d7b565b92915050565b600082601f830112611b7757611b766128f6565b5b8135611b87848260208601611a8a565b91505092915050565b600081359050611b9f81612d92565b92915050565b600081519050611bb481612d92565b92915050565b600082601f830112611bcf57611bce6128f6565b5b8135611bdf848260208601611acc565b91505092915050565b600081359050611bf781612da9565b92915050565b600081519050611c0c81612da9565b92915050565b600081519050611c2181612dc0565b92915050565b600060208284031215611c3d57611c3c612905565b5b6000611c4b84828501611b0e565b91505092915050565b60008060408385031215611c6b57611c6a612905565b5b6000611c7985828601611b0e565b9250506020611c8a85828601611b0e565b9150509250929050565b600080600060608486031215611cad57611cac612905565b5b6000611cbb86828701611b0e565b9350506020611ccc86828701611b0e565b9250506040611cdd86828701611be8565b9150509250925092565b60008060008060808587031215611d0157611d00612905565b5b6000611d0f87828801611b0e565b9450506020611d2087828801611b0e565b9350506040611d3187828801611be8565b925050606085013567ffffffffffffffff811115611d5257611d51612900565b5b611d5e87828801611b62565b91505092959194509250565b60008060408385031215611d8157611d80612905565b5b6000611d8f85828601611b0e565b9250506020611da085828601611b23565b9150509250929050565b60008060408385031215611dc157611dc0612905565b5b6000611dcf85828601611b0e565b9250506020611de085828601611be8565b9150509250929050565b600060208284031215611e0057611dff612905565b5b6000611e0e84828501611b38565b91505092915050565b600060208284031215611e2d57611e2c612905565b5b6000611e3b84828501611b4d565b91505092915050565b600060208284031215611e5a57611e59612905565b5b6000611e6884828501611b90565b91505092915050565b600060208284031215611e8757611e86612905565b5b600082013567ffffffffffffffff811115611ea557611ea4612900565b5b611eb184828501611bba565b91505092915050565b600060208284031215611ed057611ecf612905565b5b6000611ede84828501611be8565b91505092915050565b600080600080600060a08688031215611f0357611f02612905565b5b6000611f1188828901611c12565b9550506020611f2288828901611ba5565b9450506040611f3388828901611bfd565b9350506060611f4488828901611bfd565b9250506080611f5588828901611c12565b9150509295509295909350565b611f6b81612701565b82525050565b611f7a81612713565b82525050565b6000611f8b826125dd565b611f9581856125f3565b9350611fa58185602086016127a4565b611fae8161290a565b840191505092915050565b611fc28161274b565b82525050565b6000611fd3826125e8565b611fdd8185612604565b9350611fed8185602086016127a4565b611ff68161290a565b840191505092915050565b600061200c826125e8565b6120168185612615565b93506120268185602086016127a4565b80840191505092915050565b600061203f602d83612604565b915061204a8261291b565b604082019050919050565b6000612062603283612604565b915061206d8261296a565b604082019050919050565b6000612085601283612604565b9150612090826129b9565b602082019050919050565b60006120a8602583612604565b91506120b3826129e2565b604082019050919050565b60006120cb601c83612604565b91506120d682612a31565b602082019050919050565b60006120ee602483612604565b91506120f982612a5a565b604082019050919050565b6000612111601983612604565b915061211c82612aa9565b602082019050919050565b6000612134604183612615565b915061213f82612ad2565b604182019050919050565b6000612157602983612604565b915061216282612b47565b604082019050919050565b600061217a604383612615565b915061218582612b96565b604382019050919050565b600061219d600283612615565b91506121a882612c0b565b600282019050919050565b60006121c0602083612604565b91506121cb82612c34565b602082019050919050565b60006121e3600a83612615565b91506121ee82612c5d565b600a82019050919050565b6000612206601883612604565b915061221182612c86565b602082019050919050565b6000612229602183612604565b915061223482612caf565b604082019050919050565b600061224c603d83612604565b915061225782612cfe565b604082019050919050565b61226b81612775565b82525050565b600061227d8284612001565b915081905092915050565b60006122948285612001565b91506122a08284612001565b91508190509392505050565b60006122b7826121d6565b91506122c38285612001565b91506122ce8261216d565b91506122d982612127565b91506122e58284612001565b91506122f082612190565b91508190509392505050565b60006020820190506123116000830184611f62565b92915050565b600060808201905061232c6000830187611f62565b6123396020830186611f62565b6123466040830185612262565b81810360608301526123588184611f80565b905095945050505050565b60006020820190506123786000830184611f71565b92915050565b60006020820190506123936000830184611fb9565b92915050565b600060208201905081810360008301526123b38184611fc8565b905092915050565b600060208201905081810360008301526123d481612032565b9050919050565b600060208201905081810360008301526123f481612055565b9050919050565b6000602082019050818103600083015261241481612078565b9050919050565b600060208201905081810360008301526124348161209b565b9050919050565b60006020820190508181036000830152612454816120be565b9050919050565b60006020820190508181036000830152612474816120e1565b9050919050565b6000602082019050818103600083015261249481612104565b9050919050565b600060208201905081810360008301526124b48161214a565b9050919050565b600060208201905081810360008301526124d4816121b3565b9050919050565b600060208201905081810360008301526124f4816121f9565b9050919050565b600060208201905081810360008301526125148161221c565b9050919050565b600060208201905081810360008301526125348161223f565b9050919050565b60006020820190506125506000830184612262565b92915050565b6000612560612571565b905061256c8282612809565b919050565b6000604051905090565b600067ffffffffffffffff821115612596576125956128c7565b5b61259f8261290a565b9050602081019050919050565b600067ffffffffffffffff8211156125c7576125c66128c7565b5b6125d08261290a565b9050602081019050919050565b600081519050919050565b600081519050919050565b600082825260208201905092915050565b600082825260208201905092915050565b600081905092915050565b600061262b82612775565b915061263683612775565b9250827fffffffffffffffffffffffffffffffffffffffffffffffffffffffffffffffff0382111561266b5761266a61283a565b5b828201905092915050565b600061268182612775565b915061268c83612775565b92508261269c5761269b612869565b5b828204905092915050565b60006126b282612775565b91506126bd83612775565b9250817fffffffffffffffffffffffffffffffffffffffffffffffffffffffffffffffff04831182151516156126f6576126f561283a565b5b828202905092915050565b600061270c82612755565b9050919050565b60008115159050919050565b60007fffffffff0000000000000000000000000000000000000000000000000000000082169050919050565b6000819050919050565b600073ffffffffffffffffffffffffffffffffffffffff82169050919050565b6000819050919050565b600069ffffffffffffffffffff82169050919050565b82818337600083830152505050565b60005b838110156127c25780820151818401526020810190506127a7565b838111156127d1576000848401525b50505050565b600060028204905060018216806127ef57607f821691505b6020821081141561280357612802612898565b5b50919050565b6128128261290a565b810181811067ffffffffffffffff82111715612831576128306128c7565b5b80604052505050565b7f4e487b7100000000000000000000000000000000000000000000000000000000600052601160045260246000fd5b7f4e487b7100000000000000000000000000000000000000000000000000000000600052601260045260246000fd5b7f4e487b7100000000000000000000000000000000000000000000000000000000600052602260045260246000fd5b7f4e487b7100000000000000000000000000000000000000000000000000000000600052604160045260246000fd5b600080fd5b600080fd5b600080fd5b600080fd5b6000601f19601f8301169050919050565b7f4552433732313a2063616c6c6572206973206e6f7420746f6b656e206f776e6560008201527f72206f7220617070726f76656400000000000000000000000000000000000000602082015250565b7f4552433732313a207472616e7366657220746f206e6f6e20455243373231526560008201527f63656976657220696d706c656d656e7465720000000000000000000000000000602082015250565b7f546f6b656e206e6f6e2d6578697374656e740000000000000000000000000000600082015250565b7f4552433732313a207472616e736665722066726f6d20696e636f72726563742060008201527f6f776e6572000000000000000000000000000000000000000000000000000000602082015250565b7f4552433732313a20746f6b656e20616c7265616479206d696e74656400000000600082015250565b7f4552433732313a207472616e7366657220746f20746865207a65726f2061646460008201527f7265737300000000000000000000000000000000000000000000000000000000602082015250565b7f4552433732313a20617070726f766520746f2063616c6c657200000000000000600082015250565b7f2261747472696275746573223a5b7b2274726169745f7479706573223a20226360008201527f6f6f6c6e657373222c2256616c7565223a3130307d5d2c2022696d616765223a60208201527f2200000000000000000000000000000000000000000000000000000000000000604082015250565b7f4552433732313a2061646472657373207a65726f206973206e6f74206120766160008201527f6c6964206f776e65720000000000000000000000000000000000000000000000602082015250565b7f222c20226465736372697074696f6e223a22416e204e6674207468617420636860008201527f616e676573206261736564206f6e2074686520636861696e6c696e6b2066656560208201527f64222c0000000000000000000000000000000000000000000000000000000000604082015250565b7f227d000000000000000000000000000000000000000000000000000000000000600082015250565b7f4552433732313a206d696e7420746f20746865207a65726f2061646472657373600082015250565b7f7b226e616d65223a202200000000000000000000000000000000000000000000600082015250565b7f4552433732313a20696e76616c696420746f6b656e2049440000000000000000600082015250565b7f4552433732313a20617070726f76616c20746f2063757272656e74206f776e6560008201527f7200000000000000000000000000000000000000000000000000000000000000602082015250565b7f4552433732313a20617070726f76652063616c6c6572206973206e6f7420746f60008201527f6b656e206f776e6572206f7220617070726f76656420666f7220616c6c000000602082015250565b612d5681612701565b8114612d6157600080fd5b50565b612d6d81612713565b8114612d7857600080fd5b50565b612d848161271f565b8114612d8f57600080fd5b50565b612d9b8161274b565b8114612da657600080fd5b50565b612db281612775565b8114612dbd57600080fd5b50565b612dc98161277f565b8114612dd457600080fd5b5056fe4142434445464748494a4b4c4d4e4f505152535455565758595a6162636465666768696a6b6c6d6e6f707172737475767778797a303132333435363738392b2fa2646970667358221220e6f1384c101d177642a7d45114b60f831ebe8f9c23a502006a6121bd7345d41764736f6c634300080700334142434445464748494a4b4c4d4e4f505152535455565758595a6162636465666768696a6b6c6d6e6f707172737475767778797a303132333435363738392b2f",
  "devdoc": {
    "kind": "dev",
    "methods": {
      "approve(address,uint256)": {
        "details": "See {IERC721-approve}."
      },
      "balanceOf(address)": {
        "details": "See {IERC721-balanceOf}."
      },
      "getApproved(uint256)": {
        "details": "See {IERC721-getApproved}."
      },
      "isApprovedForAll(address,address)": {
        "details": "See {IERC721-isApprovedForAll}."
      },
      "name()": {
        "details": "See {IERC721Metadata-name}."
      },
      "ownerOf(uint256)": {
        "details": "See {IERC721-ownerOf}."
      },
      "safeTransferFrom(address,address,uint256)": {
        "details": "See {IERC721-safeTransferFrom}."
      },
      "safeTransferFrom(address,address,uint256,bytes)": {
        "details": "See {IERC721-safeTransferFrom}."
      },
      "setApprovalForAll(address,bool)": {
        "details": "See {IERC721-setApprovalForAll}."
      },
      "supportsInterface(bytes4)": {
        "details": "See {IERC165-supportsInterface}."
      },
      "symbol()": {
        "details": "See {IERC721Metadata-symbol}."
      },
      "tokenURI(uint256)": {
        "details": "See {IERC721Metadata-tokenURI}."
      },
      "transferFrom(address,address,uint256)": {
        "details": "See {IERC721-transferFrom}."
      }
    },
    "version": 1
  },
  "userdoc": {
    "kind": "user",
    "methods": {},
    "version": 1
  },
  "storageLayout": {
    "storage": [
      {
        "astId": 1324,
        "contract": "contracts/DynamicSvgNft.sol:DynamicSvgNft",
        "label": "_name",
        "offset": 0,
        "slot": "0",
        "type": "t_string_storage"
      },
      {
        "astId": 1326,
        "contract": "contracts/DynamicSvgNft.sol:DynamicSvgNft",
        "label": "_symbol",
        "offset": 0,
        "slot": "1",
        "type": "t_string_storage"
      },
      {
        "astId": 1330,
        "contract": "contracts/DynamicSvgNft.sol:DynamicSvgNft",
        "label": "_owners",
        "offset": 0,
        "slot": "2",
        "type": "t_mapping(t_uint256,t_address)"
      },
      {
        "astId": 1334,
        "contract": "contracts/DynamicSvgNft.sol:DynamicSvgNft",
        "label": "_balances",
        "offset": 0,
        "slot": "3",
        "type": "t_mapping(t_address,t_uint256)"
      },
      {
        "astId": 1338,
        "contract": "contracts/DynamicSvgNft.sol:DynamicSvgNft",
        "label": "_tokenApprovals",
        "offset": 0,
        "slot": "4",
        "type": "t_mapping(t_uint256,t_address)"
      },
      {
        "astId": 1344,
        "contract": "contracts/DynamicSvgNft.sol:DynamicSvgNft",
        "label": "_operatorApprovals",
        "offset": 0,
        "slot": "5",
        "type": "t_mapping(t_address,t_mapping(t_address,t_bool))"
      },
      {
        "astId": 4317,
        "contract": "contracts/DynamicSvgNft.sol:DynamicSvgNft",
        "label": "s_tokenCounter",
        "offset": 0,
        "slot": "6",
        "type": "t_uint256"
      },
      {
        "astId": 4319,
        "contract": "contracts/DynamicSvgNft.sol:DynamicSvgNft",
        "label": "i_lowImageURI",
        "offset": 0,
        "slot": "7",
        "type": "t_string_storage"
      },
      {
        "astId": 4321,
        "contract": "contracts/DynamicSvgNft.sol:DynamicSvgNft",
        "label": "i_highImageURI",
        "offset": 0,
        "slot": "8",
        "type": "t_string_storage"
      },
      {
        "astId": 4331,
        "contract": "contracts/DynamicSvgNft.sol:DynamicSvgNft",
        "label": "s_tokenIdtoHighValue",
        "offset": 0,
        "slot": "9",
        "type": "t_mapping(t_uint256,t_int256)"
      }
    ],
    "types": {
      "t_address": {
        "encoding": "inplace",
        "label": "address",
        "numberOfBytes": "20"
      },
      "t_bool": {
        "encoding": "inplace",
        "label": "bool",
        "numberOfBytes": "1"
      },
      "t_int256": {
        "encoding": "inplace",
        "label": "int256",
        "numberOfBytes": "32"
      },
      "t_mapping(t_address,t_bool)": {
        "encoding": "mapping",
        "key": "t_address",
        "label": "mapping(address => bool)",
        "numberOfBytes": "32",
        "value": "t_bool"
      },
      "t_mapping(t_address,t_mapping(t_address,t_bool))": {
        "encoding": "mapping",
        "key": "t_address",
        "label": "mapping(address => mapping(address => bool))",
        "numberOfBytes": "32",
        "value": "t_mapping(t_address,t_bool)"
      },
      "t_mapping(t_address,t_uint256)": {
        "encoding": "mapping",
        "key": "t_address",
        "label": "mapping(address => uint256)",
        "numberOfBytes": "32",
        "value": "t_uint256"
      },
      "t_mapping(t_uint256,t_address)": {
        "encoding": "mapping",
        "key": "t_uint256",
        "label": "mapping(uint256 => address)",
        "numberOfBytes": "32",
        "value": "t_address"
      },
      "t_mapping(t_uint256,t_int256)": {
        "encoding": "mapping",
        "key": "t_uint256",
        "label": "mapping(uint256 => int256)",
        "numberOfBytes": "32",
        "value": "t_int256"
      },
      "t_string_storage": {
        "encoding": "bytes",
        "label": "string",
        "numberOfBytes": "32"
      },
      "t_uint256": {
        "encoding": "inplace",
        "label": "uint256",
        "numberOfBytes": "32"
      }
    }
  }
}