{
  "address": "0xD588859566d2b2717d09114dF3AA8C5E00B5f350",
  "abi": [
    {
      "inputs": [
        {
          "internalType": "address",
          "name": "vrfCoordinatorV2",
          "type": "address"
        },
        {
          "internalType": "uint64",
          "name": "subscriptionID",
          "type": "uint64"
        },
        {
          "internalType": "bytes32",
          "name": "gaslane",
          "type": "bytes32"
        },
        {
          "internalType": "uint32",
          "name": "callbackgaslimit",
          "type": "uint32"
        },
        {
          "internalType": "string[3]",
          "name": "dogTokenUris",
          "type": "string[3]"
        },
        {
          "internalType": "uint256",
          "name": "mintfee",
          "type": "uint256"
        }
      ],
      "stateMutability": "nonpayable",
      "type": "constructor"
    },
    {
      "inputs": [
        {
          "internalType": "address",
          "name": "have",
          "type": "address"
        },
        {
          "internalType": "address",
          "name": "want",
          "type": "address"
        }
      ],
      "name": "OnlyCoordinatorCanFulfill",
      "type": "error"
    },
    {
      "inputs": [],
      "name": "RandomIpfsNft__NotEnoughEthSent",
      "type": "error"
    },
    {
      "inputs": [],
      "name": "RandomIpfsNft__RangeOutOfBounds",
      "type": "error"
    },
    {
      "inputs": [],
      "name": "RandomIpfsNft__TransferFailed",
      "type": "error"
    },
    {
      "anonymous": false,
      "inputs": [
        {
          "indexed": true,
          "internalType": "address",
          "name": "owner",
          "type": "address"
        },
        {
          "indexed": true,
          "internalType": "address",
          "name": "approved",
          "type": "address"
        },
        {
          "indexed": true,
          "internalType": "uint256",
          "name": "tokenId",
          "type": "uint256"
        }
      ],
      "name": "Approval",
      "type": "event"
    },
    {
      "anonymous": false,
      "inputs": [
        {
          "indexed": true,
          "internalType": "address",
          "name": "owner",
          "type": "address"
        },
        {
          "indexed": true,
          "internalType": "address",
          "name": "operator",
          "type": "address"
        },
        {
          "indexed": false,
          "internalType": "bool",
          "name": "approved",
          "type": "bool"
        }
      ],
      "name": "ApprovalForAll",
      "type": "event"
    },
    {
      "anonymous": false,
      "inputs": [
        {
          "indexed": false,
          "internalType": "uint256",
          "name": "_fromTokenId",
          "type": "uint256"
        },
        {
          "indexed": false,
          "internalType": "uint256",
          "name": "_toTokenId",
          "type": "uint256"
        }
      ],
      "name": "BatchMetadataUpdate",
      "type": "event"
    },
    {
      "anonymous": false,
      "inputs": [
        {
          "indexed": false,
          "internalType": "uint256",
          "name": "_tokenId",
          "type": "uint256"
        }
      ],
      "name": "MetadataUpdate",
      "type": "event"
    },
    {
      "anonymous": false,
      "inputs": [
        {
          "indexed": true,
          "internalType": "enum RandomIpfsNft.Breed",
          "name": "dogBreed",
          "type": "uint8"
        },
        {
          "indexed": true,
          "internalType": "address",
          "name": "minter",
          "type": "address"
        }
      ],
      "name": "NftMinted",
      "type": "event"
    },
    {
      "anonymous": false,
      "inputs": [
        {
          "indexed": true,
          "internalType": "uint256",
          "name": "requestId",
          "type": "uint256"
        },
        {
          "indexed": true,
          "internalType": "address",
          "name": "requester",
          "type": "address"
        }
      ],
      "name": "NftRequested",
      "type": "event"
    },
    {
      "anonymous": false,
      "inputs": [
        {
          "indexed": true,
          "internalType": "address",
          "name": "previousOwner",
          "type": "address"
        },
        {
          "indexed": true,
          "internalType": "address",
          "name": "newOwner",
          "type": "address"
        }
      ],
      "name": "OwnershipTransferred",
      "type": "event"
    },
    {
      "anonymous": false,
      "inputs": [
        {
          "indexed": true,
          "internalType": "address",
          "name": "from",
          "type": "address"
        },
        {
          "indexed": true,
          "internalType": "address",
          "name": "to",
          "type": "address"
        },
        {
          "indexed": true,
          "internalType": "uint256",
          "name": "tokenId",
          "type": "uint256"
        }
      ],
      "name": "Transfer",
      "type": "event"
    },
    {
      "inputs": [
        {
          "internalType": "address",
          "name": "to",
          "type": "address"
        },
        {
          "internalType": "uint256",
          "name": "tokenId",
          "type": "uint256"
        }
      ],
      "name": "approve",
      "outputs": [],
      "stateMutability": "nonpayable",
      "type": "function"
    },
    {
      "inputs": [
        {
          "internalType": "address",
          "name": "owner",
          "type": "address"
        }
      ],
      "name": "balanceOf",
      "outputs": [
        {
          "internalType": "uint256",
          "name": "",
          "type": "uint256"
        }
      ],
      "stateMutability": "view",
      "type": "function"
    },
    {
      "inputs": [
        {
          "internalType": "uint256",
          "name": "tokenId",
          "type": "uint256"
        }
      ],
      "name": "getApproved",
      "outputs": [
        {
          "internalType": "address",
          "name": "",
          "type": "address"
        }
      ],
      "stateMutability": "view",
      "type": "function"
    },
    {
      "inputs": [
        {
          "internalType": "uint256",
          "name": "moddedValue",
          "type": "uint256"
        }
      ],
      "name": "getBreedFromModdedValue",
      "outputs": [
        {
          "internalType": "enum RandomIpfsNft.Breed",
          "name": "",
          "type": "uint8"
        }
      ],
      "stateMutability": "pure",
      "type": "function"
    },
    {
      "inputs": [],
      "name": "getChanceArray",
      "outputs": [
        {
          "internalType": "uint256[3]",
          "name": "",
          "type": "uint256[3]"
        }
      ],
      "stateMutability": "pure",
      "type": "function"
    },
    {
      "inputs": [
        {
          "internalType": "uint256",
          "name": "index",
          "type": "uint256"
        }
      ],
      "name": "getDogTokenUris",
      "outputs": [
        {
          "internalType": "string",
          "name": "",
          "type": "string"
        }
      ],
      "stateMutability": "view",
      "type": "function"
    },
    {
      "inputs": [],
      "name": "getMintFee",
      "outputs": [
        {
          "internalType": "uint256",
          "name": "",
          "type": "uint256"
        }
      ],
      "stateMutability": "view",
      "type": "function"
    },
    {
      "inputs": [],
      "name": "getTokenCounter",
      "outputs": [
        {
          "internalType": "uint256",
          "name": "",
          "type": "uint256"
        }
      ],
      "stateMutability": "view",
      "type": "function"
    },
    {
      "inputs": [],
      "name": "getVRFCoordinatorAddress",
      "outputs": [
        {
          "internalType": "contract VRFCoordinatorV2Interface",
          "name": "",
          "type": "address"
        }
      ],
      "stateMutability": "view",
      "type": "function"
    },
    {
      "inputs": [
        {
          "internalType": "address",
          "name": "owner",
          "type": "address"
        },
        {
          "internalType": "address",
          "name": "operator",
          "type": "address"
        }
      ],
      "name": "isApprovedForAll",
      "outputs": [
        {
          "internalType": "bool",
          "name": "",
          "type": "bool"
        }
      ],
      "stateMutability": "view",
      "type": "function"
    },
    {
      "inputs": [],
      "name": "name",
      "outputs": [
        {
          "internalType": "string",
          "name": "",
          "type": "string"
        }
      ],
      "stateMutability": "view",
      "type": "function"
    },
    {
      "inputs": [],
      "name": "owner",
      "outputs": [
        {
          "internalType": "address",
          "name": "",
          "type": "address"
        }
      ],
      "stateMutability": "view",
      "type": "function"
    },
    {
      "inputs": [
        {
          "internalType": "uint256",
          "name": "tokenId",
          "type": "uint256"
        }
      ],
      "name": "ownerOf",
      "outputs": [
        {
          "internalType": "address",
          "name": "",
          "type": "address"
        }
      ],
      "stateMutability": "view",
      "type": "function"
    },
    {
      "inputs": [
        {
          "internalType": "uint256",
          "name": "requestId",
          "type": "uint256"
        },
        {
          "internalType": "uint256[]",
          "name": "randomWords",
          "type": "uint256[]"
        }
      ],
      "name": "rawFulfillRandomWords",
      "outputs": [],
      "stateMutability": "nonpayable",
      "type": "function"
    },
    {
      "inputs": [],
      "name": "renounceOwnership",
      "outputs": [],
      "stateMutability": "nonpayable",
      "type": "function"
    },
    {
      "inputs": [],
      "name": "requestNft",
      "outputs": [
        {
          "internalType": "uint256",
          "name": "requestId",
          "type": "uint256"
        }
      ],
      "stateMutability": "payable",
      "type": "function"
    },
    {
      "inputs": [
        {
          "internalType": "uint256",
          "name": "",
          "type": "uint256"
        }
      ],
      "name": "s_requestIdToSender",
      "outputs": [
        {
          "internalType": "address",
          "name": "",
          "type": "address"
        }
      ],
      "stateMutability": "view",
      "type": "function"
    },
    {
      "inputs": [],
      "name": "s_tokenCounter",
      "outputs": [
        {
          "internalType": "uint256",
          "name": "",
          "type": "uint256"
        }
      ],
      "stateMutability": "view",
      "type": "function"
    },
    {
      "inputs": [
        {
          "internalType": "address",
          "name": "from",
          "type": "address"
        },
        {
          "internalType": "address",
          "name": "to",
          "type": "address"
        },
        {
          "internalType": "uint256",
          "name": "tokenId",
          "type": "uint256"
        }
      ],
      "name": "safeTransferFrom",
      "outputs": [],
      "stateMutability": "nonpayable",
      "type": "function"
    },
    {
      "inputs": [
        {
          "internalType": "address",
          "name": "from",
          "type": "address"
        },
        {
          "internalType": "address",
          "name": "to",
          "type": "address"
        },
        {
          "internalType": "uint256",
          "name": "tokenId",
          "type": "uint256"
        },
        {
          "internalType": "bytes",
          "name": "data",
          "type": "bytes"
        }
      ],
      "name": "safeTransferFrom",
      "outputs": [],
      "stateMutability": "nonpayable",
      "type": "function"
    },
    {
      "inputs": [
        {
          "internalType": "address",
          "name": "operator",
          "type": "address"
        },
        {
          "internalType": "bool",
          "name": "approved",
          "type": "bool"
        }
      ],
      "name": "setApprovalForAll",
      "outputs": [],
      "stateMutability": "nonpayable",
      "type": "function"
    },
    {
      "inputs": [
        {
          "internalType": "bytes4",
          "name": "interfaceId",
          "type": "bytes4"
        }
      ],
      "name": "supportsInterface",
      "outputs": [
        {
          "internalType": "bool",
          "name": "",
          "type": "bool"
        }
      ],
      "stateMutability": "view",
      "type": "function"
    },
    {
      "inputs": [],
      "name": "symbol",
      "outputs": [
        {
          "internalType": "string",
          "name": "",
          "type": "string"
        }
      ],
      "stateMutability": "view",
      "type": "function"
    },
    {
      "inputs": [
        {
          "internalType": "uint256",
          "name": "tokenId",
          "type": "uint256"
        }
      ],
      "name": "tokenURI",
      "outputs": [
        {
          "internalType": "string",
          "name": "",
          "type": "string"
        }
      ],
      "stateMutability": "view",
      "type": "function"
    },
    {
      "inputs": [
        {
          "internalType": "address",
          "name": "from",
          "type": "address"
        },
        {
          "internalType": "address",
          "name": "to",
          "type": "address"
        },
        {
          "internalType": "uint256",
          "name": "tokenId",
          "type": "uint256"
        }
      ],
      "name": "transferFrom",
      "outputs": [],
      "stateMutability": "nonpayable",
      "type": "function"
    },
    {
      "inputs": [
        {
          "internalType": "address",
          "name": "newOwner",
          "type": "address"
        }
      ],
      "name": "transferOwnership",
      "outputs": [],
      "stateMutability": "nonpayable",
      "type": "function"
    },
    {
      "inputs": [],
      "name": "withdraw",
      "outputs": [],
      "stateMutability": "nonpayable",
      "type": "function"
    }
  ],
  "transactionHash": "0x7effdd39016299ba10079c8c0319128a8b5fed985fb9df6a19272a3bb4ac237a",
  "args": [
    "0x8103B0A8A00be2DDC778e6e7eaa21791Cd364625",
    "3336",
    "0x474e34a077df58807dbe9c96d3c009b23b3c6d0cce433e59bbf5b34f823bc56c",
    "500000",
    [
      "ipfs://QmabbNPMsGs5psHHcRAd7aMq8GofcKqifJotmdAjY3jgV8",
      "ipfs://QmWMEsaRunhaw6gC4KV25y4J8qc5rXMELVomhjAVLwDkdd",
      "ipfs://QmYhUYzTfki42EWEjCSFJBvH1H6xNEGmukn6rNVbpK7B1Q"
    ],
    "10000000000000000"
  ],
  "numDeployments": 1,
  "solcInputHash": "b8e108ad40d8f3b6d62269e6adee20da",
  "bytecode": "0x6101406040523480156200001257600080fd5b50604051620045b2380380620045b28339818101604052810190620000389190620005df565b6040518060400160405280600f81526020017f52616e646f6d2049504653204e465400000000000000000000000000000000008152506040518060400160405280600381526020017f52494e0000000000000000000000000000000000000000000000000000000000815250878073ffffffffffffffffffffffffffffffffffffffff1660808173ffffffffffffffffffffffffffffffffffffffff1660601b81525050508160009080519060200190620000f5929190620002a6565b5080600190805190602001906200010e929190620002a6565b5050506200013162000125620001d860201b60201c565b620001e060201b60201c565b8573ffffffffffffffffffffffffffffffffffffffff1660a08173ffffffffffffffffffffffffffffffffffffffff1660601b815250508467ffffffffffffffff1660c08167ffffffffffffffff1660c01b815250508360e081815250508263ffffffff166101008163ffffffff1660e01b81525050600060098190555081600a906003620001c292919062000337565b508061012081815250505050505050506200093a565b600033905090565b6000600760009054906101000a900473ffffffffffffffffffffffffffffffffffffffff16905081600760006101000a81548173ffffffffffffffffffffffffffffffffffffffff021916908373ffffffffffffffffffffffffffffffffffffffff1602179055508173ffffffffffffffffffffffffffffffffffffffff168173ffffffffffffffffffffffffffffffffffffffff167f8be0079c531659141344cd1fd0a4f28419497f9722a3daafe3b4186f6b6457e060405160405180910390a35050565b828054620002b490620007c4565b90600052602060002090601f016020900481019282620002d8576000855562000324565b82601f10620002f357805160ff191683800117855562000324565b8280016001018555821562000324579182015b828111156200032357825182559160200191906001019062000306565b5b5090506200033391906200039e565b5090565b8280548282559060005260206000209081019282156200038b579160200282015b828111156200038a57825182908051906020019062000379929190620002a6565b509160200191906001019062000358565b5b5090506200039a9190620003bd565b5090565b5b80821115620003b95760008160009055506001016200039f565b5090565b5b80821115620003e15760008181620003d79190620003e5565b50600101620003be565b5090565b508054620003f390620007c4565b6000825580601f1062000407575062000428565b601f0160209004906000526020600020908101906200042791906200039e565b5b50565b6000620004426200043c84620006c3565b6200069a565b905080828560208602820111156200045f576200045e62000893565b5b60005b85811015620004b457815167ffffffffffffffff8111156200048957620004886200088e565b5b80860162000498898262000567565b8552602085019450602084019350505060018101905062000462565b5050509392505050565b6000620004d5620004cf84620006ec565b6200069a565b905082815260208101848484011115620004f457620004f362000898565b5b620005018482856200078e565b509392505050565b6000815190506200051a81620008b8565b92915050565b600082601f8301126200053857620005376200088e565b5b6003620005478482856200042b565b91505092915050565b6000815190506200056181620008d2565b92915050565b600082601f8301126200057f576200057e6200088e565b5b815162000591848260208601620004be565b91505092915050565b600081519050620005ab81620008ec565b92915050565b600081519050620005c28162000906565b92915050565b600081519050620005d98162000920565b92915050565b60008060008060008060c08789031215620005ff57620005fe620008a2565b5b60006200060f89828a0162000509565b96505060206200062289828a01620005c8565b95505060406200063589828a0162000550565b94505060606200064889828a01620005b1565b935050608087015167ffffffffffffffff8111156200066c576200066b6200089d565b5b6200067a89828a0162000520565b92505060a06200068d89828a016200059a565b9150509295509295509295565b6000620006a6620006b9565b9050620006b48282620007fa565b919050565b6000604051905090565b600067ffffffffffffffff821115620006e157620006e06200085f565b5b602082029050919050565b600067ffffffffffffffff8211156200070a57620007096200085f565b5b6200071582620008a7565b9050602081019050919050565b60006200072f8262000740565b9050919050565b6000819050919050565b600073ffffffffffffffffffffffffffffffffffffffff82169050919050565b6000819050919050565b600063ffffffff82169050919050565b600067ffffffffffffffff82169050919050565b60005b83811015620007ae57808201518184015260208101905062000791565b83811115620007be576000848401525b50505050565b60006002820490506001821680620007dd57607f821691505b60208210811415620007f457620007f362000830565b5b50919050565b6200080582620008a7565b810181811067ffffffffffffffff821117156200082757620008266200085f565b5b80604052505050565b7f4e487b7100000000000000000000000000000000000000000000000000000000600052602260045260246000fd5b7f4e487b7100000000000000000000000000000000000000000000000000000000600052604160045260246000fd5b600080fd5b600080fd5b600080fd5b600080fd5b600080fd5b6000601f19601f8301169050919050565b620008c38162000722565b8114620008cf57600080fd5b50565b620008dd8162000736565b8114620008e957600080fd5b50565b620008f78162000760565b81146200090357600080fd5b50565b62000911816200076a565b81146200091d57600080fd5b50565b6200092b816200077a565b81146200093757600080fd5b50565b60805160601c60a05160601c60c05160c01c60e0516101005160e01c61012051613c07620009ab60003960008181610d380152610e6501526000610f3f01526000610efb01526000610f1c015260008181610b880152610ebf0152600081816108e201526109360152613c076000f3fe60806040526004361061019c5760003560e01c80636e02007d116100ec578063a36f573b1161008a578063c87b56dd11610064578063c87b56dd146105a9578063e985e9c5146105e6578063ead4219a14610623578063f2fde38b146106605761019c565b8063a36f573b14610525578063aa15249114610562578063b88d4fde146105805761019c565b80637a5caab3116100c65780637a5caab31461047b5780638da5cb5b146104a657806395d89b41146104d1578063a22cb465146104fc5761019c565b80636e02007d146103fc57806370a0823114610427578063715018a6146104645761019c565b806323b872dd1161015957806342842e0e1161013357806342842e0e1461034057806357bfc61c146103695780635dacf5f4146103945780636352211e146103bf5761019c565b806323b872dd146102c35780633af25975146102ec5780633ccfd60b146103295761019c565b806301ffc9a7146101a157806306fdde03146101de578063081812fc14610209578063095ea7b3146102465780630b21a83b1461026f5780631fe543e31461029a575b600080fd5b3480156101ad57600080fd5b506101c860048036038101906101c39190612abf565b610689565b6040516101d59190613068565b60405180910390f35b3480156101ea57600080fd5b506101f36106ea565b604051610200919061310c565b60405180910390f35b34801561021557600080fd5b50610230600480360381019061022b9190612b19565b61077c565b60405161023d9190612fbd565b60405180910390f35b34801561025257600080fd5b5061026d60048036038101906102689190612a7f565b6107c2565b005b34801561027b57600080fd5b506102846108da565b60405161029191906132ee565b60405180910390f35b3480156102a657600080fd5b506102c160048036038101906102bc9190612b73565b6108e0565b005b3480156102cf57600080fd5b506102ea60048036038101906102e59190612969565b6109a0565b005b3480156102f857600080fd5b50610313600480360381019061030e9190612b19565b610a00565b604051610320919061310c565b60405180910390f35b34801561033557600080fd5b5061033e610ab0565b005b34801561034c57600080fd5b5061036760048036038101906103629190612969565b610b64565b005b34801561037557600080fd5b5061037e610b84565b60405161038b91906130d6565b60405180910390f35b3480156103a057600080fd5b506103a9610bac565b6040516103b6919061304d565b60405180910390f35b3480156103cb57600080fd5b506103e660048036038101906103e19190612b19565b610bd7565b6040516103f39190612fbd565b60405180910390f35b34801561040857600080fd5b50610411610c5e565b60405161041e91906132ee565b60405180910390f35b34801561043357600080fd5b5061044e600480360381019061044991906128fc565b610c68565b60405161045b91906132ee565b60405180910390f35b34801561047057600080fd5b50610479610d20565b005b34801561048757600080fd5b50610490610d34565b60405161049d91906132ee565b60405180910390f35b3480156104b257600080fd5b506104bb610d5c565b6040516104c89190612fbd565b60405180910390f35b3480156104dd57600080fd5b506104e6610d86565b6040516104f3919061310c565b60405180910390f35b34801561050857600080fd5b50610523600480360381019061051e9190612a3f565b610e18565b005b34801561053157600080fd5b5061054c60048036038101906105479190612b19565b610e2e565b6040516105599190612fbd565b60405180910390f35b61056a610e61565b60405161057791906132ee565b60405180910390f35b34801561058c57600080fd5b506105a760048036038101906105a291906129bc565b61106d565b005b3480156105b557600080fd5b506105d060048036038101906105cb9190612b19565b6110cf565b6040516105dd919061310c565b60405180910390f35b3480156105f257600080fd5b5061060d60048036038101906106089190612929565b6111e2565b60405161061a9190613068565b60405180910390f35b34801561062f57600080fd5b5061064a60048036038101906106459190612b19565b611276565b60405161065791906130f1565b60405180910390f35b34801561066c57600080fd5b50610687600480360381019061068291906128fc565b611355565b005b6000634906490660e01b7bffffffffffffffffffffffffffffffffffffffffffffffffffffffff1916827bffffffffffffffffffffffffffffffffffffffffffffffffffffffff191614806106e357506106e2826113d9565b5b9050919050565b6060600080546106f9906135a9565b80601f0160208091040260200160405190810160405280929190818152602001828054610725906135a9565b80156107725780601f1061074757610100808354040283529160200191610772565b820191906000526020600020905b81548152906001019060200180831161075557829003601f168201915b5050505050905090565b6000610787826114bb565b6004600083815260200190815260200160002060009054906101000a900473ffffffffffffffffffffffffffffffffffffffff169050919050565b60006107cd82610bd7565b90508073ffffffffffffffffffffffffffffffffffffffff168373ffffffffffffffffffffffffffffffffffffffff16141561083e576040517f08c379a0000000000000000000000000000000000000000000000000000000008152600401610835906132ae565b60405180910390fd5b8073ffffffffffffffffffffffffffffffffffffffff1661085d611506565b73ffffffffffffffffffffffffffffffffffffffff16148061088c575061088b81610886611506565b6111e2565b5b6108cb576040517f08c379a00000000000000000000000000000000000000000000000000000000081526004016108c2906132ce565b60405180910390fd5b6108d5838361150e565b505050565b60095481565b7f000000000000000000000000000000000000000000000000000000000000000073ffffffffffffffffffffffffffffffffffffffff163373ffffffffffffffffffffffffffffffffffffffff161461099257337f00000000000000000000000000000000000000000000000000000000000000006040517f1cf993f4000000000000000000000000000000000000000000000000000000008152600401610989929190612fd8565b60405180910390fd5b61099c82826115c7565b5050565b6109b16109ab611506565b82611775565b6109f0576040517f08c379a00000000000000000000000000000000000000000000000000000000081526004016109e79061312e565b60405180910390fd5b6109fb83838361180a565b505050565b6060600a8281548110610a1657610a15613742565b5b906000526020600020018054610a2b906135a9565b80601f0160208091040260200160405190810160405280929190818152602001828054610a57906135a9565b8015610aa45780601f10610a7957610100808354040283529160200191610aa4565b820191906000526020600020905b815481529060010190602001808311610a8757829003601f168201915b50505050509050919050565b610ab8611b04565b600047905060003373ffffffffffffffffffffffffffffffffffffffff1682604051610ae390612fa8565b60006040518083038185875af1925050503d8060008114610b20576040519150601f19603f3d011682016040523d82523d6000602084013e610b25565b606091505b5050905080610b60576040517fca7e25b700000000000000000000000000000000000000000000000000000000815260040160405180910390fd5b5050565b610b7f8383836040518060200160405280600081525061106d565b505050565b60007f0000000000000000000000000000000000000000000000000000000000000000905090565b610bb46126ab565b6040518060600160405280600a8152602001601e81526020016064815250905090565b600080610be383611b82565b9050600073ffffffffffffffffffffffffffffffffffffffff168173ffffffffffffffffffffffffffffffffffffffff161415610c55576040517f08c379a0000000000000000000000000000000000000000000000000000000008152600401610c4c9061328e565b60405180910390fd5b80915050919050565b6000600954905090565b60008073ffffffffffffffffffffffffffffffffffffffff168273ffffffffffffffffffffffffffffffffffffffff161415610cd9576040517f08c379a0000000000000000000000000000000000000000000000000000000008152600401610cd09061320e565b60405180910390fd5b600360008373ffffffffffffffffffffffffffffffffffffffff1673ffffffffffffffffffffffffffffffffffffffff168152602001908152602001600020549050919050565b610d28611b04565b610d326000611bbf565b565b60007f0000000000000000000000000000000000000000000000000000000000000000905090565b6000600760009054906101000a900473ffffffffffffffffffffffffffffffffffffffff16905090565b606060018054610d95906135a9565b80601f0160208091040260200160405190810160405280929190818152602001828054610dc1906135a9565b8015610e0e5780601f10610de357610100808354040283529160200191610e0e565b820191906000526020600020905b815481529060010190602001808311610df157829003601f168201915b5050505050905090565b610e2a610e23611506565b8383611c85565b5050565b60086020528060005260406000206000915054906101000a900473ffffffffffffffffffffffffffffffffffffffff1681565b60007f0000000000000000000000000000000000000000000000000000000000000000341015610ebd576040517f5f07f97600000000000000000000000000000000000000000000000000000000815260040160405180910390fd5b7f000000000000000000000000000000000000000000000000000000000000000073ffffffffffffffffffffffffffffffffffffffff16635d3b1d307f00000000000000000000000000000000000000000000000000000000000000007f000000000000000000000000000000000000000000000000000000000000000060037f000000000000000000000000000000000000000000000000000000000000000060016040518663ffffffff1660e01b8152600401610f80959493929190613083565b602060405180830381600087803b158015610f9a57600080fd5b505af1158015610fae573d6000803e3d6000fd5b505050506040513d601f19601f82011682018060405250810190610fd29190612b46565b9050336008600083815260200190815260200160002060006101000a81548173ffffffffffffffffffffffffffffffffffffffff021916908373ffffffffffffffffffffffffffffffffffffffff1602179055503373ffffffffffffffffffffffffffffffffffffffff16817ff873236e6cc0ecc5be1a9a35c95ee5b8d1ac4cc7bfef0cc5060391d6cc98e26b60405160405180910390a390565b61107e611078611506565b83611775565b6110bd576040517f08c379a00000000000000000000000000000000000000000000000000000000081526004016110b49061312e565b60405180910390fd5b6110c984848484611df2565b50505050565b60606110da826114bb565b60006006600084815260200190815260200160002080546110fa906135a9565b80601f0160208091040260200160405190810160405280929190818152602001828054611126906135a9565b80156111735780601f1061114857610100808354040283529160200191611173565b820191906000526020600020905b81548152906001019060200180831161115657829003601f168201915b505050505090506000611184611e4e565b905060008151141561119a5781925050506111dd565b6000825111156111cf5780826040516020016111b7929190612f84565b604051602081830303815290604052925050506111dd565b6111d884611e65565b925050505b919050565b6000600560008473ffffffffffffffffffffffffffffffffffffffff1673ffffffffffffffffffffffffffffffffffffffff16815260200190815260200160002060008373ffffffffffffffffffffffffffffffffffffffff1673ffffffffffffffffffffffffffffffffffffffff16815260200190815260200160002060009054906101000a900460ff16905092915050565b600080600090506000611287610bac565b905060006003905060005b8181101561131d578386101580156112cb57508281600381106112b8576112b7613742565b5b6020020151846112c89190613406565b86105b156112ee578060028111156112e3576112e26136e4565b5b945050505050611350565b82816003811061130157611300613742565b5b60200201518401935080806113159061360c565b915050611292565b506040517f12806c9d00000000000000000000000000000000000000000000000000000000815260040160405180910390fd5b919050565b61135d611b04565b600073ffffffffffffffffffffffffffffffffffffffff168173ffffffffffffffffffffffffffffffffffffffff1614156113cd576040517f08c379a00000000000000000000000000000000000000000000000000000000081526004016113c49061316e565b60405180910390fd5b6113d681611bbf565b50565b60007f80ac58cd000000000000000000000000000000000000000000000000000000007bffffffffffffffffffffffffffffffffffffffffffffffffffffffff1916827bffffffffffffffffffffffffffffffffffffffffffffffffffffffff191614806114a457507f5b5e139f000000000000000000000000000000000000000000000000000000007bffffffffffffffffffffffffffffffffffffffffffffffffffffffff1916827bffffffffffffffffffffffffffffffffffffffffffffffffffffffff1916145b806114b457506114b382611ecd565b5b9050919050565b6114c481611f37565b611503576040517f08c379a00000000000000000000000000000000000000000000000000000000081526004016114fa9061328e565b60405180910390fd5b50565b600033905090565b816004600083815260200190815260200160002060006101000a81548173ffffffffffffffffffffffffffffffffffffffff021916908373ffffffffffffffffffffffffffffffffffffffff160217905550808273ffffffffffffffffffffffffffffffffffffffff1661158183610bd7565b73ffffffffffffffffffffffffffffffffffffffff167f8c5be1e5ebec7d5bd14f71427d1e84f3dd0314c0f7b2291e5b200ac8c7c3b92560405160405180910390a45050565b60006008600084815260200190815260200160002060009054906101000a900473ffffffffffffffffffffffffffffffffffffffff16905060006009549050600060648460008151811061161e5761161d613742565b5b60200260200101516116309190613655565b9050600061163d82611276565b90506001600954016009819055506116558484611f78565b61171783600a83600281111561166e5761166d6136e4565b5b8154811061167f5761167e613742565b5b906000526020600020018054611694906135a9565b80601f01602080910402602001604051908101604052809291908181526020018280546116c0906135a9565b801561170d5780601f106116e25761010080835404028352916020019161170d565b820191906000526020600020905b8154815290600101906020018083116116f057829003601f168201915b5050505050611f96565b3373ffffffffffffffffffffffffffffffffffffffff16816002811115611741576117406136e4565b5b7f8a269f26b688e110e9cbd887d163dab35cae678fa353a0292de532c0cac1ecdc60405160405180910390a3505050505050565b60008061178183610bd7565b90508073ffffffffffffffffffffffffffffffffffffffff168473ffffffffffffffffffffffffffffffffffffffff1614806117c357506117c281856111e2565b5b8061180157508373ffffffffffffffffffffffffffffffffffffffff166117e98461077c565b73ffffffffffffffffffffffffffffffffffffffff16145b91505092915050565b8273ffffffffffffffffffffffffffffffffffffffff1661182a82610bd7565b73ffffffffffffffffffffffffffffffffffffffff1614611880576040517f08c379a00000000000000000000000000000000000000000000000000000000081526004016118779061318e565b60405180910390fd5b600073ffffffffffffffffffffffffffffffffffffffff168273ffffffffffffffffffffffffffffffffffffffff1614156118f0576040517f08c379a00000000000000000000000000000000000000000000000000000000081526004016118e7906131ce565b60405180910390fd5b6118fd8383836001612041565b8273ffffffffffffffffffffffffffffffffffffffff1661191d82610bd7565b73ffffffffffffffffffffffffffffffffffffffff1614611973576040517f08c379a000000000000000000000000000000000000000000000000000000000815260040161196a9061318e565b60405180910390fd5b6004600082815260200190815260200160002060006101000a81549073ffffffffffffffffffffffffffffffffffffffff02191690556001600360008573ffffffffffffffffffffffffffffffffffffffff1673ffffffffffffffffffffffffffffffffffffffff168152602001908152602001600020600082825403925050819055506001600360008473ffffffffffffffffffffffffffffffffffffffff1673ffffffffffffffffffffffffffffffffffffffff16815260200190815260200160002060008282540192505081905550816002600083815260200190815260200160002060006101000a81548173ffffffffffffffffffffffffffffffffffffffff021916908373ffffffffffffffffffffffffffffffffffffffff160217905550808273ffffffffffffffffffffffffffffffffffffffff168473ffffffffffffffffffffffffffffffffffffffff167fddf252ad1be2c89b69c2b068fc378daa952ba7f163c4a11628f55a4df523b3ef60405160405180910390a4611aff8383836001612047565b505050565b611b0c611506565b73ffffffffffffffffffffffffffffffffffffffff16611b2a610d5c565b73ffffffffffffffffffffffffffffffffffffffff1614611b80576040517f08c379a0000000000000000000000000000000000000000000000000000000008152600401611b779061326e565b60405180910390fd5b565b60006002600083815260200190815260200160002060009054906101000a900473ffffffffffffffffffffffffffffffffffffffff169050919050565b6000600760009054906101000a900473ffffffffffffffffffffffffffffffffffffffff16905081600760006101000a81548173ffffffffffffffffffffffffffffffffffffffff021916908373ffffffffffffffffffffffffffffffffffffffff1602179055508173ffffffffffffffffffffffffffffffffffffffff168173ffffffffffffffffffffffffffffffffffffffff167f8be0079c531659141344cd1fd0a4f28419497f9722a3daafe3b4186f6b6457e060405160405180910390a35050565b8173ffffffffffffffffffffffffffffffffffffffff168373ffffffffffffffffffffffffffffffffffffffff161415611cf4576040517f08c379a0000000000000000000000000000000000000000000000000000000008152600401611ceb906131ee565b60405180910390fd5b80600560008573ffffffffffffffffffffffffffffffffffffffff1673ffffffffffffffffffffffffffffffffffffffff16815260200190815260200160002060008473ffffffffffffffffffffffffffffffffffffffff1673ffffffffffffffffffffffffffffffffffffffff16815260200190815260200160002060006101000a81548160ff0219169083151502179055508173ffffffffffffffffffffffffffffffffffffffff168373ffffffffffffffffffffffffffffffffffffffff167f17307eab39ab6107e8899845ad3d59bd9653f200f220920489ca2b5937696c3183604051611de59190613068565b60405180910390a3505050565b611dfd84848461180a565b611e098484848461204d565b611e48576040517f08c379a0000000000000000000000000000000000000000000000000000000008152600401611e3f9061314e565b60405180910390fd5b50505050565b606060405180602001604052806000815250905090565b6060611e70826114bb565b6000611e7a611e4e565b90506000815111611e9a5760405180602001604052806000815250611ec5565b80611ea4846121e4565b604051602001611eb5929190612f84565b6040516020818303038152906040525b915050919050565b60007f01ffc9a7000000000000000000000000000000000000000000000000000000007bffffffffffffffffffffffffffffffffffffffffffffffffffffffff1916827bffffffffffffffffffffffffffffffffffffffffffffffffffffffff1916149050919050565b60008073ffffffffffffffffffffffffffffffffffffffff16611f5983611b82565b73ffffffffffffffffffffffffffffffffffffffff1614159050919050565b611f928282604051806020016040528060008152506122bc565b5050565b611f9f82611f37565b611fde576040517f08c379a0000000000000000000000000000000000000000000000000000000008152600401611fd59061322e565b60405180910390fd5b806006600084815260200190815260200160002090805190602001906120059291906126cd565b507ff8e1a15aba9398e019f0b49df1a4fde98ee17ae345cb5f6b5e2c27f5033e8ce78260405161203591906132ee565b60405180910390a15050565b50505050565b50505050565b600061206e8473ffffffffffffffffffffffffffffffffffffffff16612317565b156121d7578373ffffffffffffffffffffffffffffffffffffffff1663150b7a02612097611506565b8786866040518563ffffffff1660e01b81526004016120b99493929190613001565b602060405180830381600087803b1580156120d357600080fd5b505af192505050801561210457506040513d601f19601f820116820180604052508101906121019190612aec565b60015b612187573d8060008114612134576040519150601f19603f3d011682016040523d82523d6000602084013e612139565b606091505b5060008151141561217f576040517f08c379a00000000000000000000000000000000000000000000000000000000081526004016121769061314e565b60405180910390fd5b805181602001fd5b63150b7a0260e01b7bffffffffffffffffffffffffffffffffffffffffffffffffffffffff1916817bffffffffffffffffffffffffffffffffffffffffffffffffffffffff1916149150506121dc565b600190505b949350505050565b6060600060016121f38461233a565b01905060008167ffffffffffffffff81111561221257612211613771565b5b6040519080825280601f01601f1916602001820160405280156122445781602001600182028036833780820191505090505b509050600082602001820190505b6001156122b1578080600190039150507f3031323334353637383961626364656600000000000000000000000000000000600a86061a8153600a858161229b5761229a6136b5565b5b04945060008514156122ac576122b1565b612252565b819350505050919050565b6122c6838361248d565b6122d3600084848461204d565b612312576040517f08c379a00000000000000000000000000000000000000000000000000000000081526004016123099061314e565b60405180910390fd5b505050565b6000808273ffffffffffffffffffffffffffffffffffffffff163b119050919050565b600080600090507a184f03e93ff9f4daa797ed6e38ed64bf6a1f0100000000000000008310612398577a184f03e93ff9f4daa797ed6e38ed64bf6a1f010000000000000000838161238e5761238d6136b5565b5b0492506040810190505b6d04ee2d6d415b85acef810000000083106123d5576d04ee2d6d415b85acef810000000083816123cb576123ca6136b5565b5b0492506020810190505b662386f26fc10000831061240457662386f26fc1000083816123fa576123f96136b5565b5b0492506010810190505b6305f5e100831061242d576305f5e1008381612423576124226136b5565b5b0492506008810190505b6127108310612452576127108381612448576124476136b5565b5b0492506004810190505b60648310612475576064838161246b5761246a6136b5565b5b0492506002810190505b600a8310612484576001810190505b80915050919050565b600073ffffffffffffffffffffffffffffffffffffffff168273ffffffffffffffffffffffffffffffffffffffff1614156124fd576040517f08c379a00000000000000000000000000000000000000000000000000000000081526004016124f49061324e565b60405180910390fd5b61250681611f37565b15612546576040517f08c379a000000000000000000000000000000000000000000000000000000000815260040161253d906131ae565b60405180910390fd5b612554600083836001612041565b61255d81611f37565b1561259d576040517f08c379a0000000000000000000000000000000000000000000000000000000008152600401612594906131ae565b60405180910390fd5b6001600360008473ffffffffffffffffffffffffffffffffffffffff1673ffffffffffffffffffffffffffffffffffffffff16815260200190815260200160002060008282540192505081905550816002600083815260200190815260200160002060006101000a81548173ffffffffffffffffffffffffffffffffffffffff021916908373ffffffffffffffffffffffffffffffffffffffff160217905550808273ffffffffffffffffffffffffffffffffffffffff16600073ffffffffffffffffffffffffffffffffffffffff167fddf252ad1be2c89b69c2b068fc378daa952ba7f163c4a11628f55a4df523b3ef60405160405180910390a46126a7600083836001612047565b5050565b6040518060600160405280600390602082028036833780820191505090505090565b8280546126d9906135a9565b90600052602060002090601f0160209004810192826126fb5760008555612742565b82601f1061271457805160ff1916838001178555612742565b82800160010185558215612742579182015b82811115612741578251825591602001919060010190612726565b5b50905061274f9190612753565b5090565b5b8082111561276c576000816000905550600101612754565b5090565b600061278361277e8461332e565b613309565b905080838252602082019050828560208602820111156127a6576127a56137a5565b5b60005b858110156127d657816127bc88826128d2565b8452602084019350602083019250506001810190506127a9565b5050509392505050565b60006127f36127ee8461335a565b613309565b90508281526020810184848401111561280f5761280e6137aa565b5b61281a848285613567565b509392505050565b60008135905061283181613b75565b92915050565b600082601f83011261284c5761284b6137a0565b5b813561285c848260208601612770565b91505092915050565b60008135905061287481613b8c565b92915050565b60008135905061288981613ba3565b92915050565b60008151905061289e81613ba3565b92915050565b600082601f8301126128b9576128b86137a0565b5b81356128c98482602086016127e0565b91505092915050565b6000813590506128e181613bba565b92915050565b6000815190506128f681613bba565b92915050565b600060208284031215612912576129116137b4565b5b600061292084828501612822565b91505092915050565b600080604083850312156129405761293f6137b4565b5b600061294e85828601612822565b925050602061295f85828601612822565b9150509250929050565b600080600060608486031215612982576129816137b4565b5b600061299086828701612822565b93505060206129a186828701612822565b92505060406129b2868287016128d2565b9150509250925092565b600080600080608085870312156129d6576129d56137b4565b5b60006129e487828801612822565b94505060206129f587828801612822565b9350506040612a06878288016128d2565b925050606085013567ffffffffffffffff811115612a2757612a266137af565b5b612a33878288016128a4565b91505092959194509250565b60008060408385031215612a5657612a556137b4565b5b6000612a6485828601612822565b9250506020612a7585828601612865565b9150509250929050565b60008060408385031215612a9657612a956137b4565b5b6000612aa485828601612822565b9250506020612ab5858286016128d2565b9150509250929050565b600060208284031215612ad557612ad46137b4565b5b6000612ae38482850161287a565b91505092915050565b600060208284031215612b0257612b016137b4565b5b6000612b108482850161288f565b91505092915050565b600060208284031215612b2f57612b2e6137b4565b5b6000612b3d848285016128d2565b91505092915050565b600060208284031215612b5c57612b5b6137b4565b5b6000612b6a848285016128e7565b91505092915050565b60008060408385031215612b8a57612b896137b4565b5b6000612b98858286016128d2565b925050602083013567ffffffffffffffff811115612bb957612bb86137af565b5b612bc585828601612837565b9150509250929050565b6000612bdb8383612f48565b60208301905092915050565b612bf08161345c565b82525050565b612bff81613395565b612c0981846133c3565b9250612c148261338b565b8060005b83811015612c45578151612c2c8782612bcf565b9650612c37836133b6565b925050600181019050612c18565b505050505050565b612c568161346e565b82525050565b612c658161347a565b82525050565b6000612c76826133a0565b612c8081856133ce565b9350612c90818560208601613576565b612c99816137b9565b840191505092915050565b612cad8161351f565b82525050565b612cbc81613531565b82525050565b6000612ccd826133ab565b612cd781856133ea565b9350612ce7818560208601613576565b612cf0816137b9565b840191505092915050565b6000612d06826133ab565b612d1081856133fb565b9350612d20818560208601613576565b80840191505092915050565b6000612d39602d836133ea565b9150612d44826137ca565b604082019050919050565b6000612d5c6032836133ea565b9150612d6782613819565b604082019050919050565b6000612d7f6026836133ea565b9150612d8a82613868565b604082019050919050565b6000612da26025836133ea565b9150612dad826138b7565b604082019050919050565b6000612dc5601c836133ea565b9150612dd082613906565b602082019050919050565b6000612de86024836133ea565b9150612df38261392f565b604082019050919050565b6000612e0b6019836133ea565b9150612e168261397e565b602082019050919050565b6000612e2e6029836133ea565b9150612e39826139a7565b604082019050919050565b6000612e51602e836133ea565b9150612e5c826139f6565b604082019050919050565b6000612e746020836133ea565b9150612e7f82613a45565b602082019050919050565b6000612e976020836133ea565b9150612ea282613a6e565b602082019050919050565b6000612eba6018836133ea565b9150612ec582613a97565b602082019050919050565b6000612edd6021836133ea565b9150612ee882613ac0565b604082019050919050565b6000612f006000836133df565b9150612f0b82613b0f565b600082019050919050565b6000612f23603d836133ea565b9150612f2e82613b12565b604082019050919050565b612f42816134c3565b82525050565b612f51816134f1565b82525050565b612f60816134f1565b82525050565b612f6f816134fb565b82525050565b612f7e8161350b565b82525050565b6000612f908285612cfb565b9150612f9c8284612cfb565b91508190509392505050565b6000612fb382612ef3565b9150819050919050565b6000602082019050612fd26000830184612be7565b92915050565b6000604082019050612fed6000830185612be7565b612ffa6020830184612be7565b9392505050565b60006080820190506130166000830187612be7565b6130236020830186612be7565b6130306040830185612f57565b81810360608301526130428184612c6b565b905095945050505050565b60006060820190506130626000830184612bf6565b92915050565b600060208201905061307d6000830184612c4d565b92915050565b600060a0820190506130986000830188612c5c565b6130a56020830187612f75565b6130b26040830186612f39565b6130bf6060830185612f66565b6130cc6080830184612f66565b9695505050505050565b60006020820190506130eb6000830184612ca4565b92915050565b60006020820190506131066000830184612cb3565b92915050565b600060208201905081810360008301526131268184612cc2565b905092915050565b6000602082019050818103600083015261314781612d2c565b9050919050565b6000602082019050818103600083015261316781612d4f565b9050919050565b6000602082019050818103600083015261318781612d72565b9050919050565b600060208201905081810360008301526131a781612d95565b9050919050565b600060208201905081810360008301526131c781612db8565b9050919050565b600060208201905081810360008301526131e781612ddb565b9050919050565b6000602082019050818103600083015261320781612dfe565b9050919050565b6000602082019050818103600083015261322781612e21565b9050919050565b6000602082019050818103600083015261324781612e44565b9050919050565b6000602082019050818103600083015261326781612e67565b9050919050565b6000602082019050818103600083015261328781612e8a565b9050919050565b600060208201905081810360008301526132a781612ead565b9050919050565b600060208201905081810360008301526132c781612ed0565b9050919050565b600060208201905081810360008301526132e781612f16565b9050919050565b60006020820190506133036000830184612f57565b92915050565b6000613313613324565b905061331f82826135db565b919050565b6000604051905090565b600067ffffffffffffffff82111561334957613348613771565b5b602082029050602081019050919050565b600067ffffffffffffffff82111561337557613374613771565b5b61337e826137b9565b9050602081019050919050565b6000819050919050565b600060039050919050565b600081519050919050565b600081519050919050565b6000602082019050919050565b600081905092915050565b600082825260208201905092915050565b600081905092915050565b600082825260208201905092915050565b600081905092915050565b6000613411826134f1565b915061341c836134f1565b9250827fffffffffffffffffffffffffffffffffffffffffffffffffffffffffffffffff0382111561345157613450613686565b5b828201905092915050565b6000613467826134d1565b9050919050565b60008115159050919050565b6000819050919050565b60007fffffffff0000000000000000000000000000000000000000000000000000000082169050919050565b60008190506134be82613b61565b919050565b600061ffff82169050919050565b600073ffffffffffffffffffffffffffffffffffffffff82169050919050565b6000819050919050565b600063ffffffff82169050919050565b600067ffffffffffffffff82169050919050565b600061352a82613543565b9050919050565b600061353c826134b0565b9050919050565b600061354e82613555565b9050919050565b6000613560826134d1565b9050919050565b82818337600083830152505050565b60005b83811015613594578082015181840152602081019050613579565b838111156135a3576000848401525b50505050565b600060028204905060018216806135c157607f821691505b602082108114156135d5576135d4613713565b5b50919050565b6135e4826137b9565b810181811067ffffffffffffffff8211171561360357613602613771565b5b80604052505050565b6000613617826134f1565b91507fffffffffffffffffffffffffffffffffffffffffffffffffffffffffffffffff82141561364a57613649613686565b5b600182019050919050565b6000613660826134f1565b915061366b836134f1565b92508261367b5761367a6136b5565b5b828206905092915050565b7f4e487b7100000000000000000000000000000000000000000000000000000000600052601160045260246000fd5b7f4e487b7100000000000000000000000000000000000000000000000000000000600052601260045260246000fd5b7f4e487b7100000000000000000000000000000000000000000000000000000000600052602160045260246000fd5b7f4e487b7100000000000000000000000000000000000000000000000000000000600052602260045260246000fd5b7f4e487b7100000000000000000000000000000000000000000000000000000000600052603260045260246000fd5b7f4e487b7100000000000000000000000000000000000000000000000000000000600052604160045260246000fd5b600080fd5b600080fd5b600080fd5b600080fd5b600080fd5b6000601f19601f8301169050919050565b7f4552433732313a2063616c6c6572206973206e6f7420746f6b656e206f776e6560008201527f72206f7220617070726f76656400000000000000000000000000000000000000602082015250565b7f4552433732313a207472616e7366657220746f206e6f6e20455243373231526560008201527f63656976657220696d706c656d656e7465720000000000000000000000000000602082015250565b7f4f776e61626c653a206e6577206f776e657220697320746865207a65726f206160008201527f6464726573730000000000000000000000000000000000000000000000000000602082015250565b7f4552433732313a207472616e736665722066726f6d20696e636f72726563742060008201527f6f776e6572000000000000000000000000000000000000000000000000000000602082015250565b7f4552433732313a20746f6b656e20616c7265616479206d696e74656400000000600082015250565b7f4552433732313a207472616e7366657220746f20746865207a65726f2061646460008201527f7265737300000000000000000000000000000000000000000000000000000000602082015250565b7f4552433732313a20617070726f766520746f2063616c6c657200000000000000600082015250565b7f4552433732313a2061646472657373207a65726f206973206e6f74206120766160008201527f6c6964206f776e65720000000000000000000000000000000000000000000000602082015250565b7f45524337323155524953746f726167653a2055524920736574206f66206e6f6e60008201527f6578697374656e7420746f6b656e000000000000000000000000000000000000602082015250565b7f4552433732313a206d696e7420746f20746865207a65726f2061646472657373600082015250565b7f4f776e61626c653a2063616c6c6572206973206e6f7420746865206f776e6572600082015250565b7f4552433732313a20696e76616c696420746f6b656e2049440000000000000000600082015250565b7f4552433732313a20617070726f76616c20746f2063757272656e74206f776e6560008201527f7200000000000000000000000000000000000000000000000000000000000000602082015250565b50565b7f4552433732313a20617070726f76652063616c6c6572206973206e6f7420746f60008201527f6b656e206f776e6572206f7220617070726f76656420666f7220616c6c000000602082015250565b60038110613b7257613b716136e4565b5b50565b613b7e8161345c565b8114613b8957600080fd5b50565b613b958161346e565b8114613ba057600080fd5b50565b613bac81613484565b8114613bb757600080fd5b50565b613bc3816134f1565b8114613bce57600080fd5b5056fea26469706673582212201acc944665f7c890b9ef1804f140e4583c58a22fcae4e70f09fdf8370785de1164736f6c63430008070033",
  "devdoc": {
    "kind": "dev",
    "methods": {
      "approve(address,uint256)": {
        "details": "See {IERC721-approve}."
      },
      "balanceOf(address)": {
        "details": "See {IERC721-balanceOf}."
      },
      "getApproved(uint256)": {
        "details": "See {IERC721-getApproved}."
      },
      "isApprovedForAll(address,address)": {
        "details": "See {IERC721-isApprovedForAll}."
      },
      "name()": {
        "details": "See {IERC721Metadata-name}."
      },
      "owner()": {
        "details": "Returns the address of the current owner."
      },
      "ownerOf(uint256)": {
        "details": "See {IERC721-ownerOf}."
      },
      "renounceOwnership()": {
        "details": "Leaves the contract without owner. It will not be possible to call `onlyOwner` functions. Can only be called by the current owner. NOTE: Renouncing ownership will leave the contract without an owner, thereby disabling any functionality that is only available to the owner."
      },
      "safeTransferFrom(address,address,uint256)": {
        "details": "See {IERC721-safeTransferFrom}."
      },
      "safeTransferFrom(address,address,uint256,bytes)": {
        "details": "See {IERC721-safeTransferFrom}."
      },
      "setApprovalForAll(address,bool)": {
        "details": "See {IERC721-setApprovalForAll}."
      },
      "supportsInterface(bytes4)": {
        "details": "See {IERC165-supportsInterface}"
      },
      "symbol()": {
        "details": "See {IERC721Metadata-symbol}."
      },
      "tokenURI(uint256)": {
        "details": "See {IERC721Metadata-tokenURI}."
      },
      "transferFrom(address,address,uint256)": {
        "details": "See {IERC721-transferFrom}."
      },
      "transferOwnership(address)": {
        "details": "Transfers ownership of the contract to a new account (`newOwner`). Can only be called by the current owner."
      }
    },
    "version": 1
  },
  "userdoc": {
    "kind": "user",
    "methods": {},
    "version": 1
  },
  "storageLayout": {
    "storage": [
      {
        "astId": 1278,
        "contract": "contracts/RandomIpfsNft.sol:RandomIpfsNft",
        "label": "_name",
        "offset": 0,
        "slot": "0",
        "type": "t_string_storage"
      },
      {
        "astId": 1280,
        "contract": "contracts/RandomIpfsNft.sol:RandomIpfsNft",
        "label": "_symbol",
        "offset": 0,
        "slot": "1",
        "type": "t_string_storage"
      },
      {
        "astId": 1284,
        "contract": "contracts/RandomIpfsNft.sol:RandomIpfsNft",
        "label": "_owners",
        "offset": 0,
        "slot": "2",
        "type": "t_mapping(t_uint256,t_address)"
      },
      {
        "astId": 1288,
        "contract": "contracts/RandomIpfsNft.sol:RandomIpfsNft",
        "label": "_balances",
        "offset": 0,
        "slot": "3",
        "type": "t_mapping(t_address,t_uint256)"
      },
      {
        "astId": 1292,
        "contract": "contracts/RandomIpfsNft.sol:RandomIpfsNft",
        "label": "_tokenApprovals",
        "offset": 0,
        "slot": "4",
        "type": "t_mapping(t_uint256,t_address)"
      },
      {
        "astId": 1298,
        "contract": "contracts/RandomIpfsNft.sol:RandomIpfsNft",
        "label": "_operatorApprovals",
        "offset": 0,
        "slot": "5",
        "type": "t_mapping(t_address,t_mapping(t_address,t_bool))"
      },
      {
        "astId": 2329,
        "contract": "contracts/RandomIpfsNft.sol:RandomIpfsNft",
        "label": "_tokenURIs",
        "offset": 0,
        "slot": "6",
        "type": "t_mapping(t_uint256,t_string_storage)"
      },
      {
        "astId": 1119,
        "contract": "contracts/RandomIpfsNft.sol:RandomIpfsNft",
        "label": "_owner",
        "offset": 0,
        "slot": "7",
        "type": "t_address"
      },
      {
        "astId": 4187,
        "contract": "contracts/RandomIpfsNft.sol:RandomIpfsNft",
        "label": "s_requestIdToSender",
        "offset": 0,
        "slot": "8",
        "type": "t_mapping(t_uint256,t_address)"
      },
      {
        "astId": 4189,
        "contract": "contracts/RandomIpfsNft.sol:RandomIpfsNft",
        "label": "s_tokenCounter",
        "offset": 0,
        "slot": "9",
        "type": "t_uint256"
      },
      {
        "astId": 4195,
        "contract": "contracts/RandomIpfsNft.sol:RandomIpfsNft",
        "label": "s_dogTokenUris",
        "offset": 0,
        "slot": "10",
        "type": "t_array(t_string_storage)dyn_storage"
      }
    ],
    "types": {
      "t_address": {
        "encoding": "inplace",
        "label": "address",
        "numberOfBytes": "20"
      },
      "t_array(t_string_storage)dyn_storage": {
        "base": "t_string_storage",
        "encoding": "dynamic_array",
        "label": "string[]",
        "numberOfBytes": "32"
      },
      "t_bool": {
        "encoding": "inplace",
        "label": "bool",
        "numberOfBytes": "1"
      },
      "t_mapping(t_address,t_bool)": {
        "encoding": "mapping",
        "key": "t_address",
        "label": "mapping(address => bool)",
        "numberOfBytes": "32",
        "value": "t_bool"
      },
      "t_mapping(t_address,t_mapping(t_address,t_bool))": {
        "encoding": "mapping",
        "key": "t_address",
        "label": "mapping(address => mapping(address => bool))",
        "numberOfBytes": "32",
        "value": "t_mapping(t_address,t_bool)"
      },
      "t_mapping(t_address,t_uint256)": {
        "encoding": "mapping",
        "key": "t_address",
        "label": "mapping(address => uint256)",
        "numberOfBytes": "32",
        "value": "t_uint256"
      },
      "t_mapping(t_uint256,t_address)": {
        "encoding": "mapping",
        "key": "t_uint256",
        "label": "mapping(uint256 => address)",
        "numberOfBytes": "32",
        "value": "t_address"
      },
      "t_mapping(t_uint256,t_string_storage)": {
        "encoding": "mapping",
        "key": "t_uint256",
        "label": "mapping(uint256 => string)",
        "numberOfBytes": "32",
        "value": "t_string_storage"
      },
      "t_string_storage": {
        "encoding": "bytes",
        "label": "string",
        "numberOfBytes": "32"
      },
      "t_uint256": {
        "encoding": "inplace",
        "label": "uint256",
        "numberOfBytes": "32"
      }
    }
  }
}